Component: ARM Compiler 5.06 update 6 (build 750) Tool: armlink [4d35ed]

==============================================================================

Section Cross References

    startup_stm32f429_439xx.o(RESET) refers to startup_stm32f429_439xx.o(STACK) for __initial_sp
    startup_stm32f429_439xx.o(RESET) refers to startup_stm32f429_439xx.o(.text) for Reset_Handler
    startup_stm32f429_439xx.o(RESET) refers to stm32f4xx_it.o(i.NMI_Handler) for NMI_Handler
    startup_stm32f429_439xx.o(RESET) refers to stm32f4xx_it.o(i.HardFault_Handler) for HardFault_Handler
    startup_stm32f429_439xx.o(RESET) refers to stm32f4xx_it.o(i.MemManage_Handler) for MemManage_Handler
    startup_stm32f429_439xx.o(RESET) refers to stm32f4xx_it.o(i.BusFault_Handler) for BusFault_Handler
    startup_stm32f429_439xx.o(RESET) refers to stm32f4xx_it.o(i.UsageFault_Handler) for UsageFault_Handler
    startup_stm32f429_439xx.o(RESET) refers to stm32f4xx_it.o(i.SVC_Handler) for SVC_Handler
    startup_stm32f429_439xx.o(RESET) refers to stm32f4xx_it.o(i.DebugMon_Handler) for DebugMon_Handler
    startup_stm32f429_439xx.o(RESET) refers to stm32f4xx_it.o(i.PendSV_Handler) for PendSV_Handler
    startup_stm32f429_439xx.o(RESET) refers to stm32f4xx_it.o(i.SysTick_Handler) for SysTick_Handler
    startup_stm32f429_439xx.o(RESET) refers to stm32f4xx_it.o(i.TIM2_IRQHandler) for TIM2_IRQHandler
    startup_stm32f429_439xx.o(RESET) refers to stm32f4xx_it.o(i.OTG_HS_IRQHandler) for OTG_HS_IRQHandler
    startup_stm32f429_439xx.o(.text) refers to system_stm32f4xx.o(i.SystemInit) for SystemInit
    startup_stm32f429_439xx.o(.text) refers to entry.o(.ARM.Collect$$$$00000000) for __main
    system_stm32f4xx.o(i.SystemCoreClockUpdate) refers to system_stm32f4xx.o(.data) for SystemCoreClock
    system_stm32f4xx.o(i.SystemInit) refers to system_stm32f4xx.o(i.SetSysClock) for SetSysClock
    stm32f4xx_adc.o(i.ADC_DeInit) refers to stm32f4xx_rcc.o(i.RCC_APB2PeriphResetCmd) for RCC_APB2PeriphResetCmd
==============================================================================

Removing Unused input sections from the image.

    Removing system_stm32f4xx.o(.rev16_text), (4 bytes).
    Removing system_stm32f4xx.o(.revsh_text), (4 bytes).
    Removing system_stm32f4xx.o(.rrx_text), (6 bytes).
    Removing system_stm32f4xx.o(i.SystemCoreClockUpdate), (192 bytes).
    Removing system_stm32f4xx.o(.data), (20 bytes).
    Removing misc.o(.rev16_text), (4 bytes).
    Removing misc.o(.revsh_text), (4 bytes).
    Removing misc.o(.rrx_text), (6 bytes).
    Removing misc.o(i.NVIC_SystemLPConfig), (32 bytes).
    Removing misc.o(i.SysTick_CLKSourceConfig), (40 bytes).
    Removing stm32f4xx_adc.o(.rev16_text), (4 bytes).
    Removing stm32f4xx_adc.o(.revsh_text), (4 bytes).
    Removing stm32f4xx_adc.o(.rrx_text), (6 bytes).
    Removing stm32f4xx_adc.o(i.ADC_AnalogWatchdogCmd), (20 bytes).
    Removing stm32f4xx_adc.o(i.ADC_AnalogWatchdogSingleChannelConfig), (16 bytes).
    Removing stm32f4xx_adc.o(i.ADC_AnalogWatchdogThresholdsConfig), (6 bytes).
    Removing stm32f4xx_adc.o(i.ADC_AutoInjectedConvCmd), (22 bytes).
    Removing stm32f4xx_adc.o(i.ADC_ClearFlag), (6 bytes).
==============================================================================

Image Symbol Table

    Local Symbols

    Symbol Name                              Value     Ov Type        Size  Object(Section)

    ../clib/microlib/division.c              0x00000000   Number         0  uldiv.o ABSOLUTE
    ../clib/microlib/division.c              0x00000000   Number         0  uidiv.o ABSOLUTE
    ../clib/microlib/init/entry.s            0x00000000   Number         0  entry11b.o ABSOLUTE
    ../clib/microlib/init/entry.s            0x00000000   Number         0  entry2.o ABSOLUTE
    ../clib/microlib/init/entry.s            0x00000000   Number         0  entry.o ABSOLUTE
    ../clib/microlib/init/entry.s            0x00000000   Number         0  entry7a.o ABSOLUTE
    ../clib/microlib/init/entry.s            0x00000000   Number         0  entry7b.o ABSOLUTE
    ../clib/microlib/init/entry.s            0x00000000   Number         0  entry9b.o ABSOLUTE
    ../clib/microlib/init/entry.s            0x00000000   Number         0  entry11a.o ABSOLUTE
    ../clib/microlib/init/entry.s            0x00000000   Number         0  entry10b.o ABSOLUTE
    ../clib/microlib/init/entry.s            0x00000000   Number         0  entry10a.o ABSOLUTE
    ../clib/microlib/init/entry.s            0x00000000   Number         0  entry5.o ABSOLUTE
    ../clib/microlib/init/entry.s            0x00000000   Number         0  entry8a.o ABSOLUTE
    ../clib/microlib/init/entry.s            0x00000000   Number         0  entry8b.o ABSOLUTE
    ../clib/microlib/init/entry.s            0x00000000   Number         0  entry9a.o ABSOLUTE
    ../clib/microlib/longlong.c              0x00000000   Number         0  llsshr.o ABSOLUTE
    ../clib/microlib/longlong.c              0x00000000   Number         0  llushr.o ABSOLUTE
    ../clib/microlib/longlong.c              0x00000000   Number         0  llshl.o ABSOLUTE
    ../clib/microlib/malloc/malloc.c         0x00000000   Number         0  mallocr.o ABSOLUTE
    ../clib/microlib/malloc/malloc.c         0x00000000   Number         0  malloc.o ABSOLUTE
    ../clib/microlib/malloc/malloc.c         0x00000000   Number         0  malloca.o ABSOLUTE
    ../clib/microlib/malloc/malloc.c         0x00000000   Number         0  mallocra.o ABSOLUTE
    ../clib/microlib/malloc/mvars.c          0x00000000   Number         0  mvars.o ABSOLUTE
    ../clib/microlib/printf/printf.c         0x00000000   Number         0  printf6.o ABSOLUTE
    ../clib/microlib/printf/printf.c         0x00000000   Number         0  printf3.o ABSOLUTE
    ../clib/microlib/printf/printf.c         0x00000000   Number         0  printfb.o ABSOLUTE
    ../clib/microlib/printf/printf.c         0x00000000   Number         0  printf0.o ABSOLUTE
    ../clib/microlib/printf/printf.c         0x00000000   Number         0  printf5.o ABSOLUTE
    ../clib/microlib/printf/printf.c         0x00000000   Number         0  printf7.o ABSOLUTE
    ../clib/microlib/printf/printf.c         0x00000000   Number         0  printf8.o ABSOLUTE
    ../clib/microlib/printf/printf.c         0x00000000   Number         0  printfa.o ABSOLUTE
    ../clib/microlib/printf/printf.c         0x00000000   Number         0  printf1.o ABSOLUTE
    ../clib/microlib/printf/printf.c         0x00000000   Number         0  printf4.o ABSOLUTE
    ../clib/microlib/printf/printf.c         0x00000000   Number         0  printf2.o ABSOLUTE
    ../clib/microlib/printf/stubs.s          0x00000000   Number         0  stubs.o ABSOLUTE
    ../clib/microlib/stdio/streams.c         0x00000000   Number         0  stdout.o ABSOLUTE
    ../clib/microlib/string/memcpy.c         0x00000000   Number         0  memcpya.o ABSOLUTE
    ../clib/microlib/string/memcpy.c         0x00000000   Number         0  memcpyb.o ABSOLUTE
    ../clib/microlib/string/memset.c         0x00000000   Number         0  memseta.o ABSOLUTE
    ../clib/microlib/string/strcpy.c         0x00000000   Number         0  strcpy.o ABSOLUTE
    ../clib/microlib/string/strlen.c         0x00000000   Number         0  strlen.o ABSOLUTE
    ../clib/microlib/stubs.s                 0x00000000   Number         0  iusefp.o ABSOLUTE
    ../fplib/microlib/fpadd.c                0x00000000   Number         0  dadd.o ABSOLUTE
    ../fplib/microlib/fpdiv.c                0x00000000   Number         0  ddiv.o ABSOLUTE
    ../fplib/microlib/fpepilogue.c           0x00000000   Number         0  depilogue.o ABSOLUTE
    ../fplib/microlib/fpfix.c                0x00000000   Number         0  dfixul.o ABSOLUTE
    ../fplib/microlib/fpmul.c                0x00000000   Number         0  dmul.o ABSOLUTE
    ..\Libraries\CMSIS\Device\ST\STM32F4xx\Source\Templates\arm\startup_stm32f429_439xx.s 0x00000000   Number         0  startup_stm32f429_439xx.o ABSOLUTE
    ..\Libraries\CMSIS\Device\ST\STM32F4xx\Source\Templates\system_stm32f4xx.c 0x00000000   Number         0  system_stm32f4xx.o ABSOLUTE
    ..\Libraries\STM32F4xx_StdPeriph_Driver\src\misc.c 0x00000000   Number         0  misc.o ABSOLUTE
    ..\Libraries\STM32F4xx_StdPeriph_Driver\src\stm32f4xx_adc.c 0x00000000   Number         0  stm32f4xx_adc.o ABSOLUTE
    ..\Libraries\STM32F4xx_StdPeriph_Driver\src\stm32f4xx_can.c 0x00000000   Number         0  stm32f4xx_can.o ABSOLUTE
    ..\Libraries\STM32F4xx_StdPeriph_Driver\src\stm32f4xx_cec.c 0x00000000   Number         0  stm32f4xx_cec.o ABSOLUTE
    ..\Libraries\STM32F4xx_StdPeriph_Driver\src\stm32f4xx_crc.c 0x00000000   Number         0  stm32f4xx_crc.o ABSOLUTE
    ..\Libraries\STM32F4xx_StdPeriph_Driver\src\stm32f4xx_cryp.c 0x00000000   Number         0  stm32f4xx_cryp.o ABSOLUTE
    ..\Libraries\STM32F4xx_StdPeriph_Driver\src\stm32f4xx_cryp_aes.c 0x00000000   Number         0  stm32f4xx_cryp_aes.o ABSOLUTE
    ..\Libraries\STM32F4xx_StdPeriph_Driver\src\stm32f4xx_cryp_des.c 0x00000000   Number         0  stm32f4xx_cryp_des.o ABSOLUTE
    ..\Libraries\STM32F4xx_StdPeriph_Driver\src\stm32f4xx_cryp_tdes.c 0x00000000   Number         0  stm32f4xx_cryp_tdes.o ABSOLUTE
    ..\Libraries\STM32F4xx_StdPeriph_Driver\src\stm32f4xx_dac.c 0x00000000   Number         0  stm32f4xx_dac.o ABSOLUTE
    ..\Libraries\STM32F4xx_StdPeriph_Driver\src\stm32f4xx_dbgmcu.c 0x00000000   Number         0  stm32f4xx_dbgmcu.o ABSOLUTE
    ..\Libraries\STM32F4xx_StdPeriph_Driver\src\stm32f4xx_dcmi.c 0x00000000   Number         0  stm32f4xx_dcmi.o ABSOLUTE
    ..\Libraries\STM32F4xx_StdPeriph_Driver\src\stm32f4xx_dma.c 0x00000000   Number         0  stm32f4xx_dma.o ABSOLUTE
    ..\Libraries\STM32F4xx_StdPeriph_Driver\src\stm32f4xx_dma2d.c 0x00000000   Number         0  stm32f4xx_dma2d.o ABSOLUTE
    ..\Libraries\STM32F4xx_StdPeriph_Driver\src\stm32f4xx_exti.c 0x00000000   Number         0  stm32f4xx_exti.o ABSOLUTE
    ..\Libraries\STM32F4xx_StdPeriph_Driver\src\stm32f4xx_flash.c 0x00000000   Number         0  stm32f4xx_flash.o ABSOLUTE
    ..\Libraries\STM32F4xx_StdPeriph_Driver\src\stm32f4xx_flash_ramfunc.c 0x00000000   Number         0  stm32f4xx_flash_ramfunc.o ABSOLUTE
    ..\Libraries\STM32F4xx_StdPeriph_Driver\src\stm32f4xx_fmc.c 0x00000000   Number         0  stm32f4xx_fmc.o ABSOLUTE
    ..\Libraries\STM32F4xx_StdPeriph_Driver\src\stm32f4xx_fmpi2c.c 0x00000000   Number         0  stm32f4xx_fmpi2c.o ABSOLUTE
    ..\Libraries\STM32F4xx_StdPeriph_Driver\src\stm32f4xx_gpio.c 0x00000000   Number         0  stm32f4xx_gpio.o ABSOLUTE
    ..\Libraries\STM32F4xx_StdPeriph_Driver\src\stm32f4xx_hash.c 0x00000000   Number         0  stm32f4xx_hash.o ABSOLUTE
    ..\Libraries\STM32F4xx_StdPeriph_Driver\src\stm32f4xx_hash_md5.c 0x00000000   Number         0  stm32f4xx_hash_md5.o ABSOLUTE
    ..\Libraries\STM32F4xx_StdPeriph_Driver\src\stm32f4xx_hash_sha1.c 0x00000000   Number         0  stm32f4xx_hash_sha1.o ABSOLUTE
    ..\Libraries\STM32F4xx_StdPeriph_Driver\src\stm32f4xx_i2c.c 0x00000000   Number         0  stm32f4xx_i2c.o ABSOLUTE
    ..\Libraries\STM32F4xx_StdPeriph_Driver\src\stm32f4xx_iwdg.c 0x00000000   Number         0  stm32f4xx_iwdg.o ABSOLUTE
    ..\Libraries\STM32F4xx_StdPeriph_Driver\src\stm32f4xx_ltdc.c 0x00000000   Number         0  stm32f4xx_ltdc.o ABSOLUTE
    ..\Libraries\STM32F4xx_StdPeriph_Driver\src\stm32f4xx_pwr.c 0x00000000   Number         0  stm32f4xx_pwr.o ABSOLUTE
    ..\Libraries\STM32F4xx_StdPeriph_Driver\src\stm32f4xx_qspi.c 0x00000000   Number         0  stm32f4xx_qspi.o ABSOLUTE
    ..\Libraries\STM32F4xx_StdPeriph_Driver\src\stm32f4xx_rcc.c 0x00000000   Number         0  stm32f4xx_rcc.o ABSOLUTE
    ..\Libraries\STM32F4xx_StdPeriph_Driver\src\stm32f4xx_rng.c 0x00000000   Number         0  stm32f4xx_rng.o ABSOLUTE
    ..\Libraries\STM32F4xx_StdPeriph_Driver\src\stm32f4xx_rtc.c 0x00000000   Number         0  stm32f4xx_rtc.o ABSOLUTE
    ..\Libraries\STM32F4xx_StdPeriph_Driver\src\stm32f4xx_sai.c 0x00000000   Number         0  stm32f4xx_sai.o ABSOLUTE
    ..\Libraries\STM32F4xx_StdPeriph_Driver\src\stm32f4xx_sdio.c 0x00000000   Number         0  stm32f4xx_sdio.o ABSOLUTE
    ..\Libraries\STM32F4xx_StdPeriph_Driver\src\stm32f4xx_spdifrx.c 0x00000000   Number         0  stm32f4xx_spdifrx.o ABSOLUTE
    ..\Libraries\STM32F4xx_StdPeriph_Driver\src\stm32f4xx_spi.c 0x00000000   Number         0  stm32f4xx_spi.o ABSOLUTE
    ..\Libraries\STM32F4xx_StdPeriph_Driver\src\stm32f4xx_syscfg.c 0x00000000   Number         0  stm32f4xx_syscfg.o ABSOLUTE
    ..\Libraries\STM32F4xx_StdPeriph_Driver\src\stm32f4xx_tim.c 0x00000000   Number         0  stm32f4xx_tim.o ABSOLUTE
    ..\Libraries\STM32F4xx_StdPeriph_Driver\src\stm32f4xx_usart.c 0x00000000   Number         0  stm32f4xx_usart.o ABSOLUTE
    ..\Libraries\STM32F4xx_StdPeriph_Driver\src\stm32f4xx_wwdg.c 0x00000000   Number         0  stm32f4xx_wwdg.o ABSOLUTE
    ..\Libraries\STM32_USB_HOST_Library\Core\src\usbh_core.c 0x00000000   Number         0  usbh_core.o ABSOLUTE
    ..\Libraries\STM32_USB_HOST_Library\Core\src\usbh_hcs.c 0x00000000   Number         0  usbh_hcs.o ABSOLUTE
    ..\Libraries\STM32_USB_HOST_Library\Core\src\usbh_ioreq.c 0x00000000   Number         0  usbh_ioreq.o ABSOLUTE
    ..\Libraries\STM32_USB_HOST_Library\Core\src\usbh_stdreq.c 0x00000000   Number         0  usbh_stdreq.o ABSOLUTE
    ..\Libraries\STM32_USB_OTG_Driver\src\usb_core.c 0x00000000   Number         0  usb_core.o ABSOLUTE
    ..\Libraries\STM32_USB_OTG_Driver\src\usb_hcd.c 0x00000000   Number         0  usb_hcd.o ABSOLUTE
    ..\Libraries\STM32_USB_OTG_Driver\src\usb_hcd_int.c 0x00000000   Number         0  usb_hcd_int.o ABSOLUTE
    ..\User\ADB\usbh_adb_core.c              0x00000000   Number         0  usbh_adb_core.o ABSOLUTE
    ..\User\APP\usb_bsp.c                    0x00000000   Number         0  usb_bsp.o ABSOLUTE
    ..\User\APP\usbh_usr.c                   0x00000000   Number         0  usbh_usr.o ABSOLUTE
    ..\User\BSP\usart\debug_usart.c          0x00000000   Number         0  debug_usart.o ABSOLUTE
    ..\User\main.c                           0x00000000   Number         0  main.o ABSOLUTE
    ..\User\stm32f4xx_it.c                   0x00000000   Number         0  stm32f4xx_it.o ABSOLUTE
    ..\\Libraries\\CMSIS\\Device\\ST\\STM32F4xx\\Source\\Templates\\system_stm32f4xx.c 0x00000000   Number         0  system_stm32f4xx.o ABSOLUTE
    ..\\Libraries\\STM32F4xx_StdPeriph_Driver\\src\\misc.c 0x00000000   Number         0  misc.o ABSOLUTE
    ..\\Libraries\\STM32F4xx_StdPeriph_Driver\\src\\stm32f4xx_adc.c 0x00000000   Number         0  stm32f4xx_adc.o ABSOLUTE
    ..\\Libraries\\STM32F4xx_StdPeriph_Driver\\src\\stm32f4xx_can.c 0x00000000   Number         0  stm32f4xx_can.o ABSOLUTE
    ..\\Libraries\\STM32F4xx_StdPeriph_Driver\\src\\stm32f4xx_cec.c 0x00000000   Number         0  stm32f4xx_cec.o ABSOLUTE
    ..\\Libraries\\STM32F4xx_StdPeriph_Driver\\src\\stm32f4xx_crc.c 0x00000000   Number         0  stm32f4xx_crc.o ABSOLUTE
    ..\\Libraries\\STM32F4xx_StdPeriph_Driver\\src\\stm32f4xx_cryp.c 0x00000000   Number         0  stm32f4xx_cryp.o ABSOLUTE
    ..\\Libraries\\STM32F4xx_StdPeriph_Driver\\src\\stm32f4xx_cryp_aes.c 0x00000000   Number         0  stm32f4xx_cryp_aes.o ABSOLUTE
    ..\\Libraries\\STM32F4xx_StdPeriph_Driver\\src\\stm32f4xx_cryp_des.c 0x00000000   Number         0  stm32f4xx_cryp_des.o ABSOLUTE
    ..\\Libraries\\STM32F4xx_StdPeriph_Driver\\src\\stm32f4xx_cryp_tdes.c 0x00000000   Number         0  stm32f4xx_cryp_tdes.o ABSOLUTE
    ..\\Libraries\\STM32F4xx_StdPeriph_Driver\\src\\stm32f4xx_dac.c 0x00000000   Number         0  stm32f4xx_dac.o ABSOLUTE
    ..\\Libraries\\STM32F4xx_StdPeriph_Driver\\src\\stm32f4xx_dbgmcu.c 0x00000000   Number         0  stm32f4xx_dbgmcu.o ABSOLUTE
    ..\\Libraries\\STM32F4xx_StdPeriph_Driver\\src\\stm32f4xx_dcmi.c 0x00000000   Number         0  stm32f4xx_dcmi.o ABSOLUTE
    ..\\Libraries\\STM32F4xx_StdPeriph_Driver\\src\\stm32f4xx_dma.c 0x00000000   Number         0  stm32f4xx_dma.o ABSOLUTE
    ..\\Libraries\\STM32F4xx_StdPeriph_Driver\\src\\stm32f4xx_dma2d.c 0x00000000   Number         0  stm32f4xx_dma2d.o ABSOLUTE
    ..\\Libraries\\STM32F4xx_StdPeriph_Driver\\src\\stm32f4xx_exti.c 0x00000000   Number         0  stm32f4xx_exti.o ABSOLUTE
    ..\\Libraries\\STM32F4xx_StdPeriph_Driver\\src\\stm32f4xx_flash.c 0x00000000   Number         0  stm32f4xx_flash.o ABSOLUTE
    ..\\Libraries\\STM32F4xx_StdPeriph_Driver\\src\\stm32f4xx_flash_ramfunc.c 0x00000000   Number         0  stm32f4xx_flash_ramfunc.o ABSOLUTE
    ..\\Libraries\\STM32F4xx_StdPeriph_Driver\\src\\stm32f4xx_fmc.c 0x00000000   Number         0  stm32f4xx_fmc.o ABSOLUTE
    ..\\Libraries\\STM32F4xx_StdPeriph_Driver\\src\\stm32f4xx_fmpi2c.c 0x00000000   Number         0  stm32f4xx_fmpi2c.o ABSOLUTE
    ..\\Libraries\\STM32F4xx_StdPeriph_Driver\\src\\stm32f4xx_gpio.c 0x00000000   Number         0  stm32f4xx_gpio.o ABSOLUTE
    ..\\Libraries\\STM32F4xx_StdPeriph_Driver\\src\\stm32f4xx_hash.c 0x00000000   Number         0  stm32f4xx_hash.o ABSOLUTE
    ..\\Libraries\\STM32F4xx_StdPeriph_Driver\\src\\stm32f4xx_hash_md5.c 0x00000000   Number         0  stm32f4xx_hash_md5.o ABSOLUTE
    ..\\Libraries\\STM32F4xx_StdPeriph_Driver\\src\\stm32f4xx_hash_sha1.c 0x00000000   Number         0  stm32f4xx_hash_sha1.o ABSOLUTE
    ..\\Libraries\\STM32F4xx_StdPeriph_Driver\\src\\stm32f4xx_i2c.c 0x00000000   Number         0  stm32f4xx_i2c.o ABSOLUTE
    ..\\Libraries\\STM32F4xx_StdPeriph_Driver\\src\\stm32f4xx_iwdg.c 0x00000000   Number         0  stm32f4xx_iwdg.o ABSOLUTE
    ..\\Libraries\\STM32F4xx_StdPeriph_Driver\\src\\stm32f4xx_ltdc.c 0x00000000   Number         0  stm32f4xx_ltdc.o ABSOLUTE
    ..\\Libraries\\STM32F4xx_StdPeriph_Driver\\src\\stm32f4xx_pwr.c 0x00000000   Number         0  stm32f4xx_pwr.o ABSOLUTE
    ..\\Libraries\\STM32F4xx_StdPeriph_Driver\\src\\stm32f4xx_qspi.c 0x00000000   Number         0  stm32f4xx_qspi.o ABSOLUTE
    ..\\Libraries\\STM32F4xx_StdPeriph_Driver\\src\\stm32f4xx_rcc.c 0x00000000   Number         0  stm32f4xx_rcc.o ABSOLUTE
    ..\\Libraries\\STM32F4xx_StdPeriph_Driver\\src\\stm32f4xx_rng.c 0x00000000   Number         0  stm32f4xx_rng.o ABSOLUTE
    ..\\Libraries\\STM32F4xx_StdPeriph_Driver\\src\\stm32f4xx_rtc.c 0x00000000   Number         0  stm32f4xx_rtc.o ABSOLUTE
    ..\\Libraries\\STM32F4xx_StdPeriph_Driver\\src\\stm32f4xx_sai.c 0x00000000   Number         0  stm32f4xx_sai.o ABSOLUTE
    ..\\Libraries\\STM32F4xx_StdPeriph_Driver\\src\\stm32f4xx_sdio.c 0x00000000   Number         0  stm32f4xx_sdio.o ABSOLUTE
    ..\\Libraries\\STM32F4xx_StdPeriph_Driver\\src\\stm32f4xx_spdifrx.c 0x00000000   Number         0  stm32f4xx_spdifrx.o ABSOLUTE
    ..\\Libraries\\STM32F4xx_StdPeriph_Driver\\src\\stm32f4xx_spi.c 0x00000000   Number         0  stm32f4xx_spi.o ABSOLUTE
    ..\\Libraries\\STM32F4xx_StdPeriph_Driver\\src\\stm32f4xx_syscfg.c 0x00000000   Number         0  stm32f4xx_syscfg.o ABSOLUTE
    ..\\Libraries\\STM32F4xx_StdPeriph_Driver\\src\\stm32f4xx_tim.c 0x00000000   Number         0  stm32f4xx_tim.o ABSOLUTE
    ..\\Libraries\\STM32F4xx_StdPeriph_Driver\\src\\stm32f4xx_usart.c 0x00000000   Number         0  stm32f4xx_usart.o ABSOLUTE
    ..\\Libraries\\STM32F4xx_StdPeriph_Driver\\src\\stm32f4xx_wwdg.c 0x00000000   Number         0  stm32f4xx_wwdg.o ABSOLUTE
    ..\\Libraries\\STM32_USB_HOST_Library\\Core\\src\\usbh_core.c 0x00000000   Number         0  usbh_core.o ABSOLUTE
    ..\\Libraries\\STM32_USB_HOST_Library\\Core\\src\\usbh_hcs.c 0x00000000   Number         0  usbh_hcs.o ABSOLUTE
    ..\\Libraries\\STM32_USB_HOST_Library\\Core\\src\\usbh_ioreq.c 0x00000000   Number         0  usbh_ioreq.o ABSOLUTE
    ..\\Libraries\\STM32_USB_HOST_Library\\Core\\src\\usbh_stdreq.c 0x00000000   Number         0  usbh_stdreq.o ABSOLUTE
    ..\\Libraries\\STM32_USB_OTG_Driver\\src\\usb_core.c 0x00000000   Number         0  usb_core.o ABSOLUTE
    ..\\Libraries\\STM32_USB_OTG_Driver\\src\\usb_hcd.c 0x00000000   Number         0  usb_hcd.o ABSOLUTE
    ..\\Libraries\\STM32_USB_OTG_Driver\\src\\usb_hcd_int.c 0x00000000   Number         0  usb_hcd_int.o ABSOLUTE
    ..\\User\\ADB\\usbh_adb_core.c           0x00000000   Number         0  usbh_adb_core.o ABSOLUTE
    ..\\User\\APP\\usb_bsp.c                 0x00000000   Number         0  usb_bsp.o ABSOLUTE
    ..\\User\\APP\\usbh_usr.c                0x00000000   Number         0  usbh_usr.o ABSOLUTE
    ..\\User\\BSP\\usart\\debug_usart.c      0x00000000   Number         0  debug_usart.o ABSOLUTE
    ..\\User\\main.c                         0x00000000   Number         0  main.o ABSOLUTE
    ..\\User\\stm32f4xx_it.c                 0x00000000   Number         0  stm32f4xx_it.o ABSOLUTE
    cdrcmple.s                               0x00000000   Number         0  cdrcmple.o ABSOLUTE
    dc.s                                     0x00000000   Number         0  dc.o ABSOLUTE
    handlers.s                               0x00000000   Number         0  handlers.o ABSOLUTE
    init.s                                   0x00000000   Number         0  init.o ABSOLUTE
    RESET                                    0x08000000   Section      428  startup_stm32f429_439xx.o(RESET)
    .ARM.Collect$$$$00000000                 0x080001ac   Section        0  entry.o(.ARM.Collect$$$$00000000)
    .ARM.Collect$$$$00000001                 0x080001ac   Section        4  entry2.o(.ARM.Collect$$$$00000001)
    .ARM.Collect$$$$00000004                 0x080001b0   Section        4  entry5.o(.ARM.Collect$$$$00000004)
    .ARM.Collect$$$$00000008                 0x080001b4   Section        0  entry7b.o(.ARM.Collect$$$$00000008)
    .ARM.Collect$$$$0000000A                 0x080001b4   Section        0  entry8b.o(.ARM.Collect$$$$0000000A)
    .ARM.Collect$$$$0000000B                 0x080001b4   Section        8  entry9a.o(.ARM.Collect$$$$0000000B)
    .ARM.Collect$$$$0000000D                 0x080001bc   Section        0  entry10a.o(.ARM.Collect$$$$0000000D)
    .ARM.Collect$$$$0000000F                 0x080001bc   Section        0  entry11a.o(.ARM.Collect$$$$0000000F)
    .ARM.Collect$$$$00002712                 0x080001bc   Section        4  entry2.o(.ARM.Collect$$$$00002712)
    __lit__00000000                          0x080001bc   Data           4  entry2.o(.ARM.Collect$$$$00002712)
    .text                                    0x080001c0   Section       36  startup_stm32f429_439xx.o(.text)
    $v0                                      0x080001c0   Number         0  startup_stm32f429_439xx.o(.text)
    .text                                    0x080001e4   Section        0  memseta.o(.text)
    .text                                    0x08000208   Section        0  strlen.o(.text)
    .text                                    0x08000216   Section        0  strcpy.o(.text)
    .text                                    0x08000228   Section        0  uldiv.o(.text)
    .text                                    0x0800028c   Section       36  init.o(.text)
    .text                                    0x080002b0   Section        0  llshl.o(.text)
    .text                                    0x080002ce   Section        0  llushr.o(.text)
    i.BSP_Delay                              0x080002f0   Section        0  usb_bsp.o(i.BSP_Delay)
    BSP_Delay                                0x080002f1   Thumb Code    38  usb_bsp.o(i.BSP_Delay)
    i.BSP_SetTime                            0x0800031c   Section        0  usb_bsp.o(i.BSP_SetTime)
    BSP_SetTime                              0x0800031d   Thumb Code   106  usb_bsp.o(i.BSP_SetTime)
    i.BusFault_Handler                       0x08000386   Section        0  stm32f4xx_it.o(i.BusFault_Handler)
    i.DebugMon_Handler                       0x0800038a   Section        0  stm32f4xx_it.o(i.DebugMon_Handler)
    i.Debug_USART_Config                     0x0800038c   Section        0  debug_usart.o(i.Debug_USART_Config)
    i.GPIO_Init                              0x0800042c   Section        0  stm32f4xx_gpio.o(i.GPIO_Init)
    i.GPIO_PinAFConfig                       0x080004bc   Section        0  stm32f4xx_gpio.o(i.GPIO_PinAFConfig)
    i.HCD_GetCurrentFrame                    0x08000502   Section        0  usb_hcd.o(i.HCD_GetCurrentFrame)
    i.HCD_GetCurrentSpeed                    0x0800050c   Section        0  usb_hcd.o(i.HCD_GetCurrentSpeed)
    i.HCD_GetURB_State                       0x08000520   Section        0  usb_hcd.o(i.HCD_GetURB_State)
    i.HCD_Init                               0x0800052a   Section        0  usb_hcd.o(i.HCD_Init)
    i.HCD_IsDeviceConnected                  0x0800058a   Section        0  usb_hcd.o(i.HCD_IsDeviceConnected)
    i.HCD_ResetPort                          0x08000592   Section        0  usb_hcd.o(i.HCD_ResetPort)
    i.HCD_SubmitRequest                      0x080005a0   Section        0  usb_hcd.o(i.HCD_SubmitRequest)
    i.HardFault_Handler                      0x080005c0   Section        0  stm32f4xx_it.o(i.HardFault_Handler)
    i.MemManage_Handler                      0x080005dc   Section        0  stm32f4xx_it.o(i.MemManage_Handler)
    i.NMI_Handler                            0x080005e0   Section        0  stm32f4xx_it.o(i.NMI_Handler)
    i.NVIC_Init                              0x080005e4   Section        0  misc.o(i.NVIC_Init)
    i.NVIC_PriorityGroupConfig               0x0800065c   Section        0  misc.o(i.NVIC_PriorityGroupConfig)
    i.NVIC_SetVectorTable                    0x08000670   Section        0  misc.o(i.NVIC_SetVectorTable)
    i.OTG_HS_IRQHandler                      0x08000684   Section        0  stm32f4xx_it.o(i.OTG_HS_IRQHandler)
    i.PendSV_Handler                         0x08000694   Section        0  stm32f4xx_it.o(i.PendSV_Handler)
    i.RCC_AHB1PeriphClockCmd                 0x08000698   Section        0  stm32f4xx_rcc.o(i.RCC_AHB1PeriphClockCmd)
    i.RCC_APB1PeriphClockCmd                 0x080006b8   Section        0  stm32f4xx_rcc.o(i.RCC_APB1PeriphClockCmd)
    i.RCC_APB2PeriphClockCmd                 0x080006d8   Section        0  stm32f4xx_rcc.o(i.RCC_APB2PeriphClockCmd)
    i.RCC_GetClocksFreq                      0x080006f8   Section        0  stm32f4xx_rcc.o(i.RCC_GetClocksFreq)
    i.SVC_Handler                            0x080007e0   Section        0  stm32f4xx_it.o(i.SVC_Handler)
    i.SetSysClock                            0x080007e4   Section        0  system_stm32f4xx.o(i.SetSysClock)
    SetSysClock                              0x080007e5   Thumb Code   272  system_stm32f4xx.o(i.SetSysClock)
    i.SysTick_Handler                        0x08000904   Section        0  stm32f4xx_it.o(i.SysTick_Handler)
    i.SystemInit                             0x08000908   Section        0  system_stm32f4xx.o(i.SystemInit)
    i.TIM2_IRQHandler                        0x08000970   Section        0  stm32f4xx_it.o(i.TIM2_IRQHandler)
    i.TIM_ARRPreloadConfig                   0x08000978   Section        0  stm32f4xx_tim.o(i.TIM_ARRPreloadConfig)
    i.TIM_ClearITPendingBit                  0x08000990   Section        0  stm32f4xx_tim.o(i.TIM_ClearITPendingBit)
    i.TIM_Cmd                                0x08000996   Section        0  stm32f4xx_tim.o(i.TIM_Cmd)
    i.TIM_GetITStatus                        0x080009ae   Section        0  stm32f4xx_tim.o(i.TIM_GetITStatus)
    i.TIM_ITConfig                           0x080009d0   Section        0  stm32f4xx_tim.o(i.TIM_ITConfig)
    i.TIM_TimeBaseInit                       0x080009e4   Section        0  stm32f4xx_tim.o(i.TIM_TimeBaseInit)
    i.USART_ClearFlag                        0x08000a68   Section        0  stm32f4xx_usart.o(i.USART_ClearFlag)
    i.USART_Cmd                              0x08000a7a   Section        0  stm32f4xx_usart.o(i.USART_Cmd)
    i.USART_GetFlagStatus                    0x08000a92   Section        0  stm32f4xx_usart.o(i.USART_GetFlagStatus)
    i.USART_Init                             0x08000aac   Section        0  stm32f4xx_usart.o(i.USART_Init)
    i.USART_SendData                         0x08000b80   Section        0  stm32f4xx_usart.o(i.USART_SendData)
    i.USBH_ADB_ClassRequest                  0x08000b88   Section        0  usbh_adb_core.o(i.USBH_ADB_ClassRequest)
    USBH_ADB_ClassRequest                    0x08000b89   Thumb Code    26  usbh_adb_core.o(i.USBH_ADB_ClassRequest)
    i.USBH_ADB_Handle                        0x08000bf4   Section        0  usbh_adb_core.o(i.USBH_ADB_Handle)
    USBH_ADB_Handle                          0x08000bf5   Thumb Code   120  usbh_adb_core.o(i.USBH_ADB_Handle)
    i.USBH_ADB_InterfaceDeInit               0x08000d5c   Section        0  usbh_adb_core.o(i.USBH_ADB_InterfaceDeInit)
    USBH_ADB_InterfaceDeInit                 0x08000d5d   Thumb Code    86  usbh_adb_core.o(i.USBH_ADB_InterfaceDeInit)
    i.USBH_ADB_InterfaceInit                 0x08000e00   Section        0  usbh_adb_core.o(i.USBH_ADB_InterfaceInit)
    USBH_ADB_InterfaceInit                   0x08000e01   Thumb Code   316  usbh_adb_core.o(i.USBH_ADB_InterfaceInit)
    i.USBH_ADB_SEND_AUTH                     0x08000f88   Section        0  usbh_adb_core.o(i.USBH_ADB_SEND_AUTH)
    USBH_ADB_SEND_AUTH                       0x08000f89   Thumb Code    24  usbh_adb_core.o(i.USBH_ADB_SEND_AUTH)
    i.USBH_ADB_SEND_CMD                      0x08000fa4   Section        0  usbh_adb_core.o(i.USBH_ADB_SEND_CMD)
    USBH_ADB_SEND_CMD                        0x08000fa5   Thumb Code    24  usbh_adb_core.o(i.USBH_ADB_SEND_CMD)
    i.USBH_Alloc_Channel                     0x08000fc0   Section        0  usbh_hcs.o(i.USBH_Alloc_Channel)
    i.USBH_BulkReceiveData                   0x08000fe6   Section        0  usbh_ioreq.o(i.USBH_BulkReceiveData)
    i.USBH_BulkSendData                      0x08001046   Section        0  usbh_ioreq.o(i.USBH_BulkSendData)
    i.USBH_Connected                         0x080010a4   Section        0  usbh_core.o(i.USBH_Connected)
    i.USBH_CtlReceiveData                    0x080010b0   Section        0  usbh_ioreq.o(i.USBH_CtlReceiveData)
    i.USBH_CtlReq                            0x080010f6   Section        0  usbh_ioreq.o(i.USBH_CtlReq)
    i.USBH_CtlSendData                       0x0800115a   Section        0  usbh_ioreq.o(i.USBH_CtlSendData)
    i.USBH_CtlSendSetup                      0x080011c8   Section        0  usbh_ioreq.o(i.USBH_CtlSendSetup)
    i.USBH_DeAllocate_AllChannel             0x0800120a   Section        0  usbh_hcs.o(i.USBH_DeAllocate_AllChannel)
    i.USBH_DeInit                            0x08001226   Section        0  usbh_core.o(i.USBH_DeInit)
    i.USBH_Disconnected                      0x08001260   Section        0  usbh_core.o(i.USBH_Disconnected)
    i.USBH_ErrorHandle                       0x0800126c   Section        0  usbh_core.o(i.USBH_ErrorHandle)
    i.USBH_Free_Channel                      0x0800129a   Section        0  usbh_hcs.o(i.USBH_Free_Channel)
    i.USBH_GetDescriptor                     0x080012b8   Section        0  usbh_stdreq.o(i.USBH_GetDescriptor)
    i.USBH_GetFreeChannel                    0x080012fc   Section        0  usbh_hcs.o(i.USBH_GetFreeChannel)
    USBH_GetFreeChannel                      0x080012fd   Thumb Code    40  usbh_hcs.o(i.USBH_GetFreeChannel)
    i.USBH_GetNextDesc                       0x08001324   Section        0  usbh_stdreq.o(i.USBH_GetNextDesc)
    i.USBH_Get_CfgDesc                       0x08001338   Section        0  usbh_stdreq.o(i.USBH_Get_CfgDesc)
    i.USBH_Get_DevDesc                       0x08001394   Section        0  usbh_stdreq.o(i.USBH_Get_DevDesc)
    i.USBH_Get_StringDesc                    0x080013cc   Section        0  usbh_stdreq.o(i.USBH_Get_StringDesc)
    i.USBH_HandleControl                     0x08001408   Section        0  usbh_core.o(i.USBH_HandleControl)
    i.USBH_HandleEnum                        0x0800162c   Section        0  usbh_core.o(i.USBH_HandleEnum)
    USBH_HandleEnum                          0x0800162d   Thumb Code   472  usbh_core.o(i.USBH_HandleEnum)
    i.USBH_Init                              0x08001808   Section        0  usbh_core.o(i.USBH_Init)
    i.USBH_Modify_Channel                    0x0800184e   Section        0  usbh_hcs.o(i.USBH_Modify_Channel)
    i.USBH_OTG_ISR_Handler                   0x080018b2   Section        0  usb_hcd_int.o(i.USBH_OTG_ISR_Handler)
    i.USBH_Open_Channel                      0x0800195a   Section        0  usbh_hcs.o(i.USBH_Open_Channel)
    i.USBH_ParseCfgDesc                      0x080019f4   Section        0  usbh_stdreq.o(i.USBH_ParseCfgDesc)
    USBH_ParseCfgDesc                        0x080019f5   Thumb Code   274  usbh_stdreq.o(i.USBH_ParseCfgDesc)
    i.USBH_ParseDevDesc                      0x08001b10   Section        0  usbh_stdreq.o(i.USBH_ParseDevDesc)
    USBH_ParseDevDesc                        0x08001b11   Thumb Code    88  usbh_stdreq.o(i.USBH_ParseDevDesc)
    i.USBH_ParseEPDesc                       0x08001b68   Section        0  usbh_stdreq.o(i.USBH_ParseEPDesc)
    USBH_ParseEPDesc                         0x08001b69   Thumb Code    32  usbh_stdreq.o(i.USBH_ParseEPDesc)
    i.USBH_ParseInterfaceDesc                0x08001b88   Section        0  usbh_stdreq.o(i.USBH_ParseInterfaceDesc)
    USBH_ParseInterfaceDesc                  0x08001b89   Thumb Code    38  usbh_stdreq.o(i.USBH_ParseInterfaceDesc)
    i.USBH_ParseStringDesc                   0x08001bae   Section        0  usbh_stdreq.o(i.USBH_ParseStringDesc)
    USBH_ParseStringDesc                     0x08001baf   Thumb Code    54  usbh_stdreq.o(i.USBH_ParseStringDesc)
    i.USBH_Process                           0x08001be4   Section        0  usbh_core.o(i.USBH_Process)
    i.USBH_SOF                               0x08001d86   Section        0  usbh_core.o(i.USBH_SOF)
    i.USBH_SetAddress                        0x08001d8c   Section        0  usbh_stdreq.o(i.USBH_SetAddress)
    i.USBH_SetCfg                            0x08001db2   Section        0  usbh_stdreq.o(i.USBH_SetCfg)
    i.USBH_SubmitSetupRequest                0x08001dd8   Section        0  usbh_ioreq.o(i.USBH_SubmitSetupRequest)
    USBH_SubmitSetupRequest                  0x08001dd9   Thumb Code    24  usbh_ioreq.o(i.USBH_SubmitSetupRequest)
    i.USBH_USR_Configuration_DescAvailable   0x08001df0   Section        0  usbh_usr.o(i.USBH_USR_Configuration_DescAvailable)
    i.USBH_USR_DeInit                        0x08001e84   Section        0  usbh_usr.o(i.USBH_USR_DeInit)
    i.USBH_USR_DeviceAddressAssigned         0x08001e86   Section        0  usbh_usr.o(i.USBH_USR_DeviceAddressAssigned)
    i.USBH_USR_DeviceAttached                0x08001e88   Section        0  usbh_usr.o(i.USBH_USR_DeviceAttached)
    i.USBH_USR_DeviceDisconnected            0x08001eac   Section        0  usbh_usr.o(i.USBH_USR_DeviceDisconnected)
    i.USBH_USR_DeviceNotSupported            0x08001ed0   Section        0  usbh_usr.o(i.USBH_USR_DeviceNotSupported)
    i.USBH_USR_DeviceSpeedDetected           0x08001f30   Section        0  usbh_usr.o(i.USBH_USR_DeviceSpeedDetected)
    i.USBH_USR_Device_DescAvailable          0x08001fc4   Section        0  usbh_usr.o(i.USBH_USR_Device_DescAvailable)
    i.USBH_USR_EnumerationDone               0x0800205c   Section        0  usbh_usr.o(i.USBH_USR_EnumerationDone)
    i.USBH_USR_Init                          0x080020ac   Section        0  usbh_usr.o(i.USBH_USR_Init)
    i.USBH_USR_MSC_Application               0x080021a0   Section        0  usbh_usr.o(i.USBH_USR_MSC_Application)
    i.USBH_USR_Manufacturer_String           0x080021a4   Section        0  usbh_usr.o(i.USBH_USR_Manufacturer_String)
    i.USBH_USR_OverCurrentDetected           0x08002204   Section        0  usbh_usr.o(i.USBH_USR_OverCurrentDetected)
    i.USBH_USR_Product_String                0x08002264   Section        0  usbh_usr.o(i.USBH_USR_Product_String)
    i.USBH_USR_ResetDevice                   0x080022c0   Section        0  usbh_usr.o(i.USBH_USR_ResetDevice)
    i.USBH_USR_SerialNum_String              0x08002320   Section        0  usbh_usr.o(i.USBH_USR_SerialNum_String)
    i.USBH_USR_UnrecoveredError              0x08002380   Section        0  usbh_usr.o(i.USBH_USR_UnrecoveredError)
    i.USBH_USR_UserInput                     0x080023cc   Section        0  usbh_usr.o(i.USBH_USR_UserInput)
    i.USB_OTG_BSP_ConfigVBUS                 0x080023d0   Section        0  usb_bsp.o(i.USB_OTG_BSP_ConfigVBUS)
    i.USB_OTG_BSP_DriveVBUS                  0x080023d2   Section        0  usb_bsp.o(i.USB_OTG_BSP_DriveVBUS)
    i.USB_OTG_BSP_EnableInterrupt            0x080023d4   Section        0  usb_bsp.o(i.USB_OTG_BSP_EnableInterrupt)
    i.USB_OTG_BSP_Init                       0x08002400   Section        0  usb_bsp.o(i.USB_OTG_BSP_Init)
    i.USB_OTG_BSP_TimeInit                   0x0800244c   Section        0  usb_bsp.o(i.USB_OTG_BSP_TimeInit)
    USB_OTG_BSP_TimeInit                     0x0800244d   Thumb Code    56  usb_bsp.o(i.USB_OTG_BSP_TimeInit)
    i.USB_OTG_BSP_TimerIRQ                   0x08002484   Section        0  usb_bsp.o(i.USB_OTG_BSP_TimerIRQ)
    i.USB_OTG_BSP_mDelay                     0x080024bc   Section        0  usb_bsp.o(i.USB_OTG_BSP_mDelay)
    i.USB_OTG_BSP_uDelay                     0x080024ca   Section        0  usb_bsp.o(i.USB_OTG_BSP_uDelay)
    i.USB_OTG_CoreInit                       0x080024d8   Section        0  usb_core.o(i.USB_OTG_CoreInit)
    i.USB_OTG_CoreInitHost                   0x0800260a   Section        0  usb_core.o(i.USB_OTG_CoreInitHost)
    i.USB_OTG_CoreReset                      0x080026e4   Section        0  usb_core.o(i.USB_OTG_CoreReset)
    USB_OTG_CoreReset                        0x080026e5   Thumb Code   108  usb_core.o(i.USB_OTG_CoreReset)
    i.USB_OTG_DisableGlobalInt               0x08002754   Section        0  usb_core.o(i.USB_OTG_DisableGlobalInt)
    i.USB_OTG_DriveVbus                      0x08002776   Section        0  usb_core.o(i.USB_OTG_DriveVbus)
    i.USB_OTG_EnableCommonInt                0x080027d2   Section        0  usb_core.o(i.USB_OTG_EnableCommonInt)
    USB_OTG_EnableCommonInt                  0x080027d3   Thumb Code    52  usb_core.o(i.USB_OTG_EnableCommonInt)
    i.USB_OTG_EnableGlobalInt                0x08002806   Section        0  usb_core.o(i.USB_OTG_EnableGlobalInt)
    i.USB_OTG_EnableHostInt                  0x08002828   Section        0  usb_core.o(i.USB_OTG_EnableHostInt)
    i.USB_OTG_FlushRxFifo                    0x0800289c   Section        0  usb_core.o(i.USB_OTG_FlushRxFifo)
    i.USB_OTG_FlushTxFifo                    0x080028e8   Section        0  usb_core.o(i.USB_OTG_FlushTxFifo)
    i.USB_OTG_GetMode                        0x0800293c   Section        0  usb_core.o(i.USB_OTG_GetMode)
    i.USB_OTG_HC_DoPing                      0x08002948   Section        0  usb_core.o(i.USB_OTG_HC_DoPing)
    i.USB_OTG_HC_Halt                        0x080029a2   Section        0  usb_core.o(i.USB_OTG_HC_Halt)
    i.USB_OTG_HC_Init                        0x08002a24   Section        0  usb_core.o(i.USB_OTG_HC_Init)
    i.USB_OTG_HC_StartXfer                   0x08002c5c   Section        0  usb_core.o(i.USB_OTG_HC_StartXfer)
    i.USB_OTG_InitFSLSPClkSel                0x08002e52   Section        0  usb_core.o(i.USB_OTG_InitFSLSPClkSel)
    i.USB_OTG_IsEvenFrame                    0x08002e6a   Section        0  usb_core.o(i.USB_OTG_IsEvenFrame)
    i.USB_OTG_IsHostMode                     0x08002e7a   Section        0  usb_core.o(i.USB_OTG_IsHostMode)
    i.USB_OTG_ReadCoreItr                    0x08002e8e   Section        0  usb_core.o(i.USB_OTG_ReadCoreItr)
    i.USB_OTG_ReadHPRT0                      0x08002e9e   Section        0  usb_core.o(i.USB_OTG_ReadHPRT0)
    i.USB_OTG_ReadHostAllChannels_intr       0x08002ece   Section        0  usb_core.o(i.USB_OTG_ReadHostAllChannels_intr)
    i.USB_OTG_ReadPacket                     0x08002ed6   Section        0  usb_core.o(i.USB_OTG_ReadPacket)
    i.USB_OTG_ResetPort                      0x08002efe   Section        0  usb_core.o(i.USB_OTG_ResetPort)
    i.USB_OTG_SelectCore                     0x08002f40   Section        0  usb_core.o(i.USB_OTG_SelectCore)
    i.USB_OTG_SetCurrentMode                 0x08003018   Section        0  usb_core.o(i.USB_OTG_SetCurrentMode)
    i.USB_OTG_USBH_handle_Disconnect_ISR     0x08003068   Section        0  usb_hcd_int.o(i.USB_OTG_USBH_handle_Disconnect_ISR)
    USB_OTG_USBH_handle_Disconnect_ISR       0x08003069   Thumb Code    40  usb_hcd_int.o(i.USB_OTG_USBH_handle_Disconnect_ISR)
    i.USB_OTG_USBH_handle_IncompletePeriodicXfer_ISR 0x08003094   Section        0  usb_hcd_int.o(i.USB_OTG_USBH_handle_IncompletePeriodicXfer_ISR)
    USB_OTG_USBH_handle_IncompletePeriodicXfer_ISR 0x08003095   Thumb Code    70  usb_hcd_int.o(i.USB_OTG_USBH_handle_IncompletePeriodicXfer_ISR)
    i.USB_OTG_USBH_handle_hc_ISR             0x080030da   Section        0  usb_hcd_int.o(i.USB_OTG_USBH_handle_hc_ISR)
    USB_OTG_USBH_handle_hc_ISR               0x080030db   Thumb Code    86  usb_hcd_int.o(i.USB_OTG_USBH_handle_hc_ISR)
    i.USB_OTG_USBH_handle_hc_n_In_ISR        0x08003130   Section        0  usb_hcd_int.o(i.USB_OTG_USBH_handle_hc_n_In_ISR)
    USB_OTG_USBH_handle_hc_n_In_ISR          0x08003131   Thumb Code  1066  usb_hcd_int.o(i.USB_OTG_USBH_handle_hc_n_In_ISR)
    i.USB_OTG_USBH_handle_hc_n_Out_ISR       0x0800355a   Section        0  usb_hcd_int.o(i.USB_OTG_USBH_handle_hc_n_Out_ISR)
    USB_OTG_USBH_handle_hc_n_Out_ISR         0x0800355b   Thumb Code   976  usb_hcd_int.o(i.USB_OTG_USBH_handle_hc_n_Out_ISR)
    i.USB_OTG_USBH_handle_nptxfempty_ISR     0x0800392a   Section        0  usb_hcd_int.o(i.USB_OTG_USBH_handle_nptxfempty_ISR)
    USB_OTG_USBH_handle_nptxfempty_ISR       0x0800392b   Thumb Code   302  usb_hcd_int.o(i.USB_OTG_USBH_handle_nptxfempty_ISR)
    i.USB_OTG_USBH_handle_port_ISR           0x08003a58   Section        0  usb_hcd_int.o(i.USB_OTG_USBH_handle_port_ISR)
    USB_OTG_USBH_handle_port_ISR             0x08003a59   Thumb Code   282  usb_hcd_int.o(i.USB_OTG_USBH_handle_port_ISR)
    i.USB_OTG_USBH_handle_ptxfempty_ISR      0x08003b78   Section        0  usb_hcd_int.o(i.USB_OTG_USBH_handle_ptxfempty_ISR)
    USB_OTG_USBH_handle_ptxfempty_ISR        0x08003b79   Thumb Code   302  usb_hcd_int.o(i.USB_OTG_USBH_handle_ptxfempty_ISR)
    i.USB_OTG_USBH_handle_rx_qlvl_ISR        0x08003ca6   Section        0  usb_hcd_int.o(i.USB_OTG_USBH_handle_rx_qlvl_ISR)
    USB_OTG_USBH_handle_rx_qlvl_ISR          0x08003ca7   Thumb Code   356  usb_hcd_int.o(i.USB_OTG_USBH_handle_rx_qlvl_ISR)
    i.USB_OTG_USBH_handle_sof_ISR            0x08003e0c   Section        0  usb_hcd_int.o(i.USB_OTG_USBH_handle_sof_ISR)
    USB_OTG_USBH_handle_sof_ISR              0x08003e0d   Thumb Code    38  usb_hcd_int.o(i.USB_OTG_USBH_handle_sof_ISR)
    i.USB_OTG_WritePacket                    0x08003e38   Section        0  usb_core.o(i.USB_OTG_WritePacket)
    i.UsageFault_Handler                     0x08003e78   Section        0  stm32f4xx_it.o(i.UsageFault_Handler)
    i.__0printf$8                            0x08003e7c   Section        0  printf8.o(i.__0printf$8)
    i.__scatterload_copy                     0x08003e9c   Section       14  handlers.o(i.__scatterload_copy)
    i.__scatterload_null                     0x08003eaa   Section        2  handlers.o(i.__scatterload_null)
    i.__scatterload_zeroinit                 0x08003eac   Section       14  handlers.o(i.__scatterload_zeroinit)
    i._printf_core                           0x08003ebc   Section        0  printf8.o(i._printf_core)
    _printf_core                             0x08003ebd   Thumb Code   996  printf8.o(i._printf_core)
    i._printf_post_padding                   0x080042cc   Section        0  printf8.o(i._printf_post_padding)
    _printf_post_padding                     0x080042cd   Thumb Code    36  printf8.o(i._printf_post_padding)
    i._printf_pre_padding                    0x080042f0   Section        0  printf8.o(i._printf_pre_padding)
    _printf_pre_padding                      0x080042f1   Thumb Code    46  printf8.o(i._printf_pre_padding)
    i.check_data                             0x0800431e   Section        0  usbh_adb_core.o(i.check_data)
    check_data                               0x0800431f   Thumb Code    48  usbh_adb_core.o(i.check_data)
    i.check_header                           0x0800434e   Section        0  usbh_adb_core.o(i.check_header)
    check_header                             0x0800434f   Thumb Code    34  usbh_adb_core.o(i.check_header)
    i.fputc                                  0x08004370   Section        0  debug_usart.o(i.fputc)
    i.free                                   0x08004394   Section        0  malloc.o(i.free)
    i.get_apacket                            0x080043e4   Section        0  usbh_adb_core.o(i.get_apacket)
    get_apacket                              0x080043e5   Thumb Code    26  usbh_adb_core.o(i.get_apacket)
    i.main                                   0x08004400   Section        0  main.o(i.main)
    i.malloc                                 0x08004434   Section        0  malloc.o(i.malloc)
    i.put_apacket                            0x080044a0   Section        0  usbh_adb_core.o(i.put_apacket)
    put_apacket                              0x080044a1   Thumb Code    12  usbh_adb_core.o(i.put_apacket)
    i.remote_read                            0x080044ac   Section        0  usbh_adb_core.o(i.remote_read)
    remote_read                              0x080044ad   Thumb Code    92  usbh_adb_core.o(i.remote_read)
    i.remote_write                           0x08004508   Section        0  usbh_adb_core.o(i.remote_write)
    remote_write                             0x08004509   Thumb Code    72  usbh_adb_core.o(i.remote_write)
    i.send_auth_remote                       0x08004550   Section        0  usbh_adb_core.o(i.send_auth_remote)
    send_auth_remote                         0x08004551   Thumb Code   130  usbh_adb_core.o(i.send_auth_remote)
    i.send_cmd_remote                        0x080045f4   Section        0  usbh_adb_core.o(i.send_cmd_remote)
    i.send_packet_remote                     0x0800468c   Section        0  usbh_adb_core.o(i.send_packet_remote)
    send_packet_remote                       0x0800468d   Thumb Code    66  usbh_adb_core.o(i.send_packet_remote)
    i.usb_read                               0x080046d0   Section        0  usbh_adb_core.o(i.usb_read)
    usb_read                                 0x080046d1   Thumb Code    72  usbh_adb_core.o(i.usb_read)
    i.usb_write                              0x0800471c   Section        0  usbh_adb_core.o(i.usb_write)
    usb_write                                0x0800471d   Thumb Code    62  usbh_adb_core.o(i.usb_write)
    .constdata                               0x08004760   Section      450  usbh_usr.o(.constdata)
    .conststring                             0x08004924   Section      138  usbh_adb_core.o(.conststring)
    .data                                    0x20000000   Section       16  stm32f4xx_rcc.o(.data)
    APBAHBPrescTable                         0x20000000   Data          16  stm32f4xx_rcc.o(.data)
    .data                                    0x20000010   Section       18  usbh_core.o(.data)
    timeout                                  0x20000020   Data           2  usbh_core.o(.data)
    .data                                    0x20000022   Section        3  usbh_stdreq.o(.data)
    prev_ep_size                             0x20000022   Data           2  usbh_stdreq.o(.data)
    prev_itf                                 0x20000024   Data           1  usbh_stdreq.o(.data)
    .data                                    0x20000028   Section        8  usb_bsp.o(.data)
    .data                                    0x20000030   Section       73  usbh_usr.o(.data)
    startup                                  0x20000078   Data           1  usbh_usr.o(.data)
    .data                                    0x2000007c   Section       24  usbh_adb_core.o(.data)
    AUTH_KEY                                 0x2000007c   Data           4  usbh_adb_core.o(.data)
    TOUCH_CMD                                0x20000080   Data           4  usbh_adb_core.o(.data)
    .data                                    0x20000094   Section        4  stdout.o(.data)
    .data                                    0x20000098   Section        4  mvars.o(.data)
    .data                                    0x2000009c   Section        4  mvars.o(.data)
    .bss                                     0x200000a0   Section      512  usbh_stdreq.o(.bss)
    .bss                                     0x200002a0   Section     1632  usbh_usr.o(.bss)
    .bss                                     0x20000900   Section       12  usbh_adb_core.o(.bss)
    HEAP                                     0x20000910   Section      512  startup_stm32f429_439xx.o(HEAP)
    STACK                                    0x20000b10   Section     1024  startup_stm32f429_439xx.o(STACK)

    Global Symbols

    Symbol Name                              Value     Ov Type        Size  Object(Section)

    BuildAttributes$$THM_ISAv4$E$P$D$K$B$S$7EM$VFPi3$EXTD16$VFPS$VFMA$PE$A:L22UL41UL21$X:L11$S22US41US21$IEEE1$IW$USESV6$~STKCKD$USESV7$~SHL$OSPACE$ROPI$EBA8$MICROLIB$REQ8$PRES8$EABIv2 0x00000000   Number         0  anon$$obj.o ABSOLUTE
    __ARM_use_no_argv                        0x00000000   Number         0  main.o ABSOLUTE
    _printf_a                                0x00000000   Number         0  stubs.o ABSOLUTE
    _printf_c                                0x00000000   Number         0  stubs.o ABSOLUTE
    _printf_charcount                        0x00000000   Number         0  stubs.o ABSOLUTE
    _printf_d                                0x00000000   Number         0  stubs.o ABSOLUTE
    _printf_e                                0x00000000   Number         0  stubs.o ABSOLUTE
    _printf_f                                0x00000000   Number         0  stubs.o ABSOLUTE
    _printf_flags                            0x00000000   Number         0  stubs.o ABSOLUTE
    _printf_fp_dec                           0x00000000   Number         0  stubs.o ABSOLUTE
    _printf_fp_hex                           0x00000000   Number         0  stubs.o ABSOLUTE
    _printf_g                                0x00000000   Number         0  stubs.o ABSOLUTE
    _printf_i                                0x00000000   Number         0  stubs.o ABSOLUTE
    _printf_int_dec                          0x00000000   Number         0  stubs.o ABSOLUTE
    _printf_l                                0x00000000   Number         0  stubs.o ABSOLUTE
    _printf_lc                               0x00000000   Number         0  stubs.o ABSOLUTE
    _printf_ll                               0x00000000   Number         0  stubs.o ABSOLUTE
    _printf_lld                              0x00000000   Number         0  stubs.o ABSOLUTE
    _printf_lli                              0x00000000   Number         0  stubs.o ABSOLUTE
    _printf_llo                              0x00000000   Number         0  stubs.o ABSOLUTE
    _printf_llu                              0x00000000   Number         0  stubs.o ABSOLUTE
    _printf_llx                              0x00000000   Number         0  stubs.o ABSOLUTE
    _printf_longlong_dec                     0x00000000   Number         0  stubs.o ABSOLUTE
    _printf_longlong_hex                     0x00000000   Number         0  stubs.o ABSOLUTE
    _printf_longlong_oct                     0x00000000   Number         0  stubs.o ABSOLUTE
    _printf_ls                               0x00000000   Number         0  stubs.o ABSOLUTE
    _printf_mbtowc                           0x00000000   Number         0  stubs.o ABSOLUTE
    _printf_n                                0x00000000   Number         0  stubs.o ABSOLUTE
    _printf_o                                0x00000000   Number         0  stubs.o ABSOLUTE
    _printf_p                                0x00000000   Number         0  stubs.o ABSOLUTE
    _printf_percent                          0x00000000   Number         0  stubs.o ABSOLUTE
    _printf_pre_padding                      0x00000000   Number         0  stubs.o ABSOLUTE
    _printf_return_value                     0x00000000   Number         0  stubs.o ABSOLUTE
    _printf_s                                0x00000000   Number         0  stubs.o ABSOLUTE
    _printf_sizespec                         0x00000000   Number         0  stubs.o ABSOLUTE
    _printf_str                              0x00000000   Number         0  stubs.o ABSOLUTE
    _printf_truncate_signed                  0x00000000   Number         0  stubs.o ABSOLUTE
    _printf_truncate_unsigned                0x00000000   Number         0  stubs.o ABSOLUTE
    _printf_u                                0x00000000   Number         0  stubs.o ABSOLUTE
    _printf_wc                               0x00000000   Number         0  stubs.o ABSOLUTE
    _printf_wctomb                           0x00000000   Number         0  stubs.o ABSOLUTE
    _printf_widthprec                        0x00000000   Number         0  stubs.o ABSOLUTE
    _printf_x                                0x00000000   Number         0  stubs.o ABSOLUTE
    __cpp_initialize__aeabi_                  - Undefined Weak Reference
    __cxa_finalize                            - Undefined Weak Reference
    __decompress                              - Undefined Weak Reference
    _clock_init                               - Undefined Weak Reference
    _microlib_exit                            - Undefined Weak Reference
    __Vectors_Size                           0x000001ac   Number         0  startup_stm32f429_439xx.o ABSOLUTE
    __Vectors                                0x08000000   Data           4  startup_stm32f429_439xx.o(RESET)
    __Vectors_End                            0x080001ac   Data           0  startup_stm32f429_439xx.o(RESET)
    __main                                   0x080001ad   Thumb Code     0  entry.o(.ARM.Collect$$$$00000000)
    _main_stk                                0x080001ad   Thumb Code     0  entry2.o(.ARM.Collect$$$$00000001)
    _main_scatterload                        0x080001b1   Thumb Code     0  entry5.o(.ARM.Collect$$$$00000004)
    __main_after_scatterload                 0x080001b5   Thumb Code     0  entry5.o(.ARM.Collect$$$$00000004)
    _main_clock                              0x080001b5   Thumb Code     0  entry7b.o(.ARM.Collect$$$$00000008)
    _main_cpp_init                           0x080001b5   Thumb Code     0  entry8b.o(.ARM.Collect$$$$0000000A)
    _main_init                               0x080001b5   Thumb Code     0  entry9a.o(.ARM.Collect$$$$0000000B)
    __rt_final_cpp                           0x080001bd   Thumb Code     0  entry10a.o(.ARM.Collect$$$$0000000D)
    __rt_final_exit                          0x080001bd   Thumb Code     0  entry11a.o(.ARM.Collect$$$$0000000F)
    Reset_Handler                            0x080001c1   Thumb Code     8  startup_stm32f429_439xx.o(.text)
    ADC_IRQHandler                           0x080001db   Thumb Code     0  startup_stm32f429_439xx.o(.text)
    CAN1_RX0_IRQHandler                      0x080001db   Thumb Code     0  startup_stm32f429_439xx.o(.text)
    CAN1_RX1_IRQHandler                      0x080001db   Thumb Code     0  startup_stm32f429_439xx.o(.text)
    CAN1_SCE_IRQHandler                      0x080001db   Thumb Code     0  startup_stm32f429_439xx.o(.text)
    CAN1_TX_IRQHandler                       0x080001db   Thumb Code     0  startup_stm32f429_439xx.o(.text)
    CAN2_RX0_IRQHandler                      0x080001db   Thumb Code     0  startup_stm32f429_439xx.o(.text)
    CAN2_RX1_IRQHandler                      0x080001db   Thumb Code     0  startup_stm32f429_439xx.o(.text)
    CAN2_SCE_IRQHandler                      0x080001db   Thumb Code     0  startup_stm32f429_439xx.o(.text)
    CAN2_TX_IRQHandler                       0x080001db   Thumb Code     0  startup_stm32f429_439xx.o(.text)
    CRYP_IRQHandler                          0x080001db   Thumb Code     0  startup_stm32f429_439xx.o(.text)
    DCMI_IRQHandler                          0x080001db   Thumb Code     0  startup_stm32f429_439xx.o(.text)
    DMA1_Stream0_IRQHandler                  0x080001db   Thumb Code     0  startup_stm32f429_439xx.o(.text)
    DMA1_Stream1_IRQHandler                  0x080001db   Thumb Code     0  startup_stm32f429_439xx.o(.text)
    DMA1_Stream2_IRQHandler                  0x080001db   Thumb Code     0  startup_stm32f429_439xx.o(.text)
    DMA1_Stream3_IRQHandler                  0x080001db   Thumb Code     0  startup_stm32f429_439xx.o(.text)
    DMA1_Stream4_IRQHandler                  0x080001db   Thumb Code     0  startup_stm32f429_439xx.o(.text)
    DMA1_Stream5_IRQHandler                  0x080001db   Thumb Code     0  startup_stm32f429_439xx.o(.text)
    DMA1_Stream6_IRQHandler                  0x080001db   Thumb Code     0  startup_stm32f429_439xx.o(.text)
    DMA1_Stream7_IRQHandler                  0x080001db   Thumb Code     0  startup_stm32f429_439xx.o(.text)
    DMA2D_IRQHandler                         0x080001db   Thumb Code     0  startup_stm32f429_439xx.o(.text)
    DMA2_Stream0_IRQHandler                  0x080001db   Thumb Code     0  startup_stm32f429_439xx.o(.text)
    DMA2_Stream1_IRQHandler                  0x080001db   Thumb Code     0  startup_stm32f429_439xx.o(.text)
    DMA2_Stream2_IRQHandler                  0x080001db   Thumb Code     0  startup_stm32f429_439xx.o(.text)
    DMA2_Stream3_IRQHandler                  0x080001db   Thumb Code     0  startup_stm32f429_439xx.o(.text)
    DMA2_Stream4_IRQHandler                  0x080001db   Thumb Code     0  startup_stm32f429_439xx.o(.text)
    DMA2_Stream5_IRQHandler                  0x080001db   Thumb Code     0  startup_stm32f429_439xx.o(.text)
    DMA2_Stream6_IRQHandler                  0x080001db   Thumb Code     0  startup_stm32f429_439xx.o(.text)
    DMA2_Stream7_IRQHandler                  0x080001db   Thumb Code     0  startup_stm32f429_439xx.o(.text)
    ETH_IRQHandler                           0x080001db   Thumb Code     0  startup_stm32f429_439xx.o(.text)
    ETH_WKUP_IRQHandler                      0x080001db   Thumb Code     0  startup_stm32f429_439xx.o(.text)
    EXTI0_IRQHandler                         0x080001db   Thumb Code     0  startup_stm32f429_439xx.o(.text)
    EXTI15_10_IRQHandler                     0x080001db   Thumb Code     0  startup_stm32f429_439xx.o(.text)
    EXTI1_IRQHandler                         0x080001db   Thumb Code     0  startup_stm32f429_439xx.o(.text)
    EXTI2_IRQHandler                         0x080001db   Thumb Code     0  startup_stm32f429_439xx.o(.text)
    EXTI3_IRQHandler                         0x080001db   Thumb Code     0  startup_stm32f429_439xx.o(.text)
    EXTI4_IRQHandler                         0x080001db   Thumb Code     0  startup_stm32f429_439xx.o(.text)
    EXTI9_5_IRQHandler                       0x080001db   Thumb Code     0  startup_stm32f429_439xx.o(.text)
    FLASH_IRQHandler                         0x080001db   Thumb Code     0  startup_stm32f429_439xx.o(.text)
    FMC_IRQHandler                           0x080001db   Thumb Code     0  startup_stm32f429_439xx.o(.text)
    FPU_IRQHandler                           0x080001db   Thumb Code     0  startup_stm32f429_439xx.o(.text)
    HASH_RNG_IRQHandler                      0x080001db   Thumb Code     0  startup_stm32f429_439xx.o(.text)
    I2C1_ER_IRQHandler                       0x080001db   Thumb Code     0  startup_stm32f429_439xx.o(.text)
    I2C1_EV_IRQHandler                       0x080001db   Thumb Code     0  startup_stm32f429_439xx.o(.text)
    I2C2_ER_IRQHandler                       0x080001db   Thumb Code     0  startup_stm32f429_439xx.o(.text)
    I2C2_EV_IRQHandler                       0x080001db   Thumb Code     0  startup_stm32f429_439xx.o(.text)
    I2C3_ER_IRQHandler                       0x080001db   Thumb Code     0  startup_stm32f429_439xx.o(.text)
    I2C3_EV_IRQHandler                       0x080001db   Thumb Code     0  startup_stm32f429_439xx.o(.text)
    LTDC_ER_IRQHandler                       0x080001db   Thumb Code     0  startup_stm32f429_439xx.o(.text)
    LTDC_IRQHandler                          0x080001db   Thumb Code     0  startup_stm32f429_439xx.o(.text)
    OTG_FS_IRQHandler                        0x080001db   Thumb Code     0  startup_stm32f429_439xx.o(.text)
    OTG_FS_WKUP_IRQHandler                   0x080001db   Thumb Code     0  startup_stm32f429_439xx.o(.text)
    OTG_HS_EP1_IN_IRQHandler                 0x080001db   Thumb Code     0  startup_stm32f429_439xx.o(.text)
    OTG_HS_EP1_OUT_IRQHandler                0x080001db   Thumb Code     0  startup_stm32f429_439xx.o(.text)
    OTG_HS_WKUP_IRQHandler                   0x080001db   Thumb Code     0  startup_stm32f429_439xx.o(.text)
    PVD_IRQHandler                           0x080001db   Thumb Code     0  startup_stm32f429_439xx.o(.text)
    RCC_IRQHandler                           0x080001db   Thumb Code     0  startup_stm32f429_439xx.o(.text)
    RTC_Alarm_IRQHandler                     0x080001db   Thumb Code     0  startup_stm32f429_439xx.o(.text)
    RTC_WKUP_IRQHandler                      0x080001db   Thumb Code     0  startup_stm32f429_439xx.o(.text)
    SAI1_IRQHandler                          0x080001db   Thumb Code     0  startup_stm32f429_439xx.o(.text)
    SDIO_IRQHandler                          0x080001db   Thumb Code     0  startup_stm32f429_439xx.o(.text)
    SPI1_IRQHandler                          0x080001db   Thumb Code     0  startup_stm32f429_439xx.o(.text)
    SPI2_IRQHandler                          0x080001db   Thumb Code     0  startup_stm32f429_439xx.o(.text)
    SPI3_IRQHandler                          0x080001db   Thumb Code     0  startup_stm32f429_439xx.o(.text)
    SPI4_IRQHandler                          0x080001db   Thumb Code     0  startup_stm32f429_439xx.o(.text)
    SPI5_IRQHandler                          0x080001db   Thumb Code     0  startup_stm32f429_439xx.o(.text)
    SPI6_IRQHandler                          0x080001db   Thumb Code     0  startup_stm32f429_439xx.o(.text)
    TAMP_STAMP_IRQHandler                    0x080001db   Thumb Code     0  startup_stm32f429_439xx.o(.text)
    TIM1_BRK_TIM9_IRQHandler                 0x080001db   Thumb Code     0  startup_stm32f429_439xx.o(.text)
    TIM1_CC_IRQHandler                       0x080001db   Thumb Code     0  startup_stm32f429_439xx.o(.text)
    TIM1_TRG_COM_TIM11_IRQHandler            0x080001db   Thumb Code     0  startup_stm32f429_439xx.o(.text)
    TIM1_UP_TIM10_IRQHandler                 0x080001db   Thumb Code     0  startup_stm32f429_439xx.o(.text)
    TIM3_IRQHandler                          0x080001db   Thumb Code     0  startup_stm32f429_439xx.o(.text)
    TIM4_IRQHandler                          0x080001db   Thumb Code     0  startup_stm32f429_439xx.o(.text)
    TIM5_IRQHandler                          0x080001db   Thumb Code     0  startup_stm32f429_439xx.o(.text)
    TIM6_DAC_IRQHandler                      0x080001db   Thumb Code     0  startup_stm32f429_439xx.o(.text)
    TIM7_IRQHandler                          0x080001db   Thumb Code     0  startup_stm32f429_439xx.o(.text)
    TIM8_BRK_TIM12_IRQHandler                0x080001db   Thumb Code     0  startup_stm32f429_439xx.o(.text)
    TIM8_CC_IRQHandler                       0x080001db   Thumb Code     0  startup_stm32f429_439xx.o(.text)
    TIM8_TRG_COM_TIM14_IRQHandler            0x080001db   Thumb Code     0  startup_stm32f429_439xx.o(.text)
    TIM8_UP_TIM13_IRQHandler                 0x080001db   Thumb Code     0  startup_stm32f429_439xx.o(.text)
    UART4_IRQHandler                         0x080001db   Thumb Code     0  startup_stm32f429_439xx.o(.text)
    UART5_IRQHandler                         0x080001db   Thumb Code     0  startup_stm32f429_439xx.o(.text)
    UART7_IRQHandler                         0x080001db   Thumb Code     0  startup_stm32f429_439xx.o(.text)
    UART8_IRQHandler                         0x080001db   Thumb Code     0  startup_stm32f429_439xx.o(.text)
    USART1_IRQHandler                        0x080001db   Thumb Code     0  startup_stm32f429_439xx.o(.text)
    USART2_IRQHandler                        0x080001db   Thumb Code     0  startup_stm32f429_439xx.o(.text)
    USART3_IRQHandler                        0x080001db   Thumb Code     0  startup_stm32f429_439xx.o(.text)
    USART6_IRQHandler                        0x080001db   Thumb Code     0  startup_stm32f429_439xx.o(.text)
    WWDG_IRQHandler                          0x080001db   Thumb Code     0  startup_stm32f429_439xx.o(.text)
    __aeabi_memset                           0x080001e5   Thumb Code    14  memseta.o(.text)
    __aeabi_memset4                          0x080001e5   Thumb Code     0  memseta.o(.text)
    __aeabi_memset8                          0x080001e5   Thumb Code     0  memseta.o(.text)
    __aeabi_memclr                           0x080001f3   Thumb Code     4  memseta.o(.text)
    __aeabi_memclr4                          0x080001f3   Thumb Code     0  memseta.o(.text)
    __aeabi_memclr8                          0x080001f3   Thumb Code     0  memseta.o(.text)
    _memset$wrapper                          0x080001f7   Thumb Code    18  memseta.o(.text)
    strlen                                   0x08000209   Thumb Code    14  strlen.o(.text)
    strcpy                                   0x08000217   Thumb Code    18  strcpy.o(.text)
    __aeabi_uldivmod                         0x08000229   Thumb Code    98  uldiv.o(.text)
    __scatterload                            0x0800028d   Thumb Code    28  init.o(.text)
    __scatterload_rt2                        0x0800028d   Thumb Code     0  init.o(.text)
    __aeabi_llsl                             0x080002b1   Thumb Code    30  llshl.o(.text)
    _ll_shift_l                              0x080002b1   Thumb Code     0  llshl.o(.text)
    __aeabi_llsr                             0x080002cf   Thumb Code    32  llushr.o(.text)
    _ll_ushift_r                             0x080002cf   Thumb Code     0  llushr.o(.text)
    BusFault_Handler                         0x08000387   Thumb Code     4  stm32f4xx_it.o(i.BusFault_Handler)
    DebugMon_Handler                         0x0800038b   Thumb Code     2  stm32f4xx_it.o(i.DebugMon_Handler)
    Debug_USART_Config                       0x0800038d   Thumb Code   152  debug_usart.o(i.Debug_USART_Config)
    GPIO_Init                                0x0800042d   Thumb Code   144  stm32f4xx_gpio.o(i.GPIO_Init)
    GPIO_PinAFConfig                         0x080004bd   Thumb Code    70  stm32f4xx_gpio.o(i.GPIO_PinAFConfig)
    HCD_GetCurrentFrame                      0x08000503   Thumb Code    10  usb_hcd.o(i.HCD_GetCurrentFrame)
    HCD_GetCurrentSpeed                      0x0800050d   Thumb Code    20  usb_hcd.o(i.HCD_GetCurrentSpeed)
    HCD_GetURB_State                         0x08000521   Thumb Code    10  usb_hcd.o(i.HCD_GetURB_State)
    HCD_Init                                 0x0800052b   Thumb Code    96  usb_hcd.o(i.HCD_Init)
    HCD_IsDeviceConnected                    0x0800058b   Thumb Code     8  usb_hcd.o(i.HCD_IsDeviceConnected)
    HCD_ResetPort                            0x08000593   Thumb Code    14  usb_hcd.o(i.HCD_ResetPort)
    HCD_SubmitRequest                        0x080005a1   Thumb Code    32  usb_hcd.o(i.HCD_SubmitRequest)
    HardFault_Handler                        0x080005c1   Thumb Code    10  stm32f4xx_it.o(i.HardFault_Handler)
    MemManage_Handler                        0x080005dd   Thumb Code     4  stm32f4xx_it.o(i.MemManage_Handler)
    NMI_Handler                              0x080005e1   Thumb Code     2  stm32f4xx_it.o(i.NMI_Handler)
    NVIC_Init                                0x080005e5   Thumb Code   106  misc.o(i.NVIC_Init)
    NVIC_PriorityGroupConfig                 0x0800065d   Thumb Code    10  misc.o(i.NVIC_PriorityGroupConfig)
    NVIC_SetVectorTable                      0x08000671   Thumb Code    12  misc.o(i.NVIC_SetVectorTable)
    OTG_HS_IRQHandler                        0x08000685   Thumb Code    10  stm32f4xx_it.o(i.OTG_HS_IRQHandler)
    PendSV_Handler                           0x08000695   Thumb Code     2  stm32f4xx_it.o(i.PendSV_Handler)
    RCC_AHB1PeriphClockCmd                   0x08000699   Thumb Code    26  stm32f4xx_rcc.o(i.RCC_AHB1PeriphClockCmd)
    RCC_APB1PeriphClockCmd                   0x080006b9   Thumb Code    26  stm32f4xx_rcc.o(i.RCC_APB1PeriphClockCmd)
    RCC_APB2PeriphClockCmd                   0x080006d9   Thumb Code    26  stm32f4xx_rcc.o(i.RCC_APB2PeriphClockCmd)
    RCC_GetClocksFreq                        0x080006f9   Thumb Code   214  stm32f4xx_rcc.o(i.RCC_GetClocksFreq)
    SVC_Handler                              0x080007e1   Thumb Code     2  stm32f4xx_it.o(i.SVC_Handler)
    SysTick_Handler                          0x08000905   Thumb Code     2  stm32f4xx_it.o(i.SysTick_Handler)
    SystemInit                               0x08000909   Thumb Code    88  system_stm32f4xx.o(i.SystemInit)
    TIM2_IRQHandler                          0x08000971   Thumb Code     8  stm32f4xx_it.o(i.TIM2_IRQHandler)
    TIM_ARRPreloadConfig                     0x08000979   Thumb Code    24  stm32f4xx_tim.o(i.TIM_ARRPreloadConfig)
    TIM_ClearITPendingBit                    0x08000991   Thumb Code     6  stm32f4xx_tim.o(i.TIM_ClearITPendingBit)
    TIM_Cmd                                  0x08000997   Thumb Code    24  stm32f4xx_tim.o(i.TIM_Cmd)
    TIM_GetITStatus                          0x080009af   Thumb Code    34  stm32f4xx_tim.o(i.TIM_GetITStatus)
    TIM_ITConfig                             0x080009d1   Thumb Code    18  stm32f4xx_tim.o(i.TIM_ITConfig)
    TIM_TimeBaseInit                         0x080009e5   Thumb Code   104  stm32f4xx_tim.o(i.TIM_TimeBaseInit)
    USART_ClearFlag                          0x08000a69   Thumb Code    18  stm32f4xx_usart.o(i.USART_ClearFlag)
    USART_Cmd                                0x08000a7b   Thumb Code    24  stm32f4xx_usart.o(i.USART_Cmd)
    USART_GetFlagStatus                      0x08000a93   Thumb Code    26  stm32f4xx_usart.o(i.USART_GetFlagStatus)
    USART_Init                               0x08000aad   Thumb Code   204  stm32f4xx_usart.o(i.USART_Init)
    USART_SendData                           0x08000b81   Thumb Code     8  stm32f4xx_usart.o(i.USART_SendData)
    USBH_Alloc_Channel                       0x08000fc1   Thumb Code    38  usbh_hcs.o(i.USBH_Alloc_Channel)
    USBH_BulkReceiveData                     0x08000fe7   Thumb Code    96  usbh_ioreq.o(i.USBH_BulkReceiveData)
    USBH_BulkSendData                        0x08001047   Thumb Code    94  usbh_ioreq.o(i.USBH_BulkSendData)
    USBH_Connected                           0x080010a5   Thumb Code    12  usbh_core.o(i.USBH_Connected)
    USBH_CtlReceiveData                      0x080010b1   Thumb Code    70  usbh_ioreq.o(i.USBH_CtlReceiveData)
    USBH_CtlReq                              0x080010f7   Thumb Code   100  usbh_ioreq.o(i.USBH_CtlReq)
    USBH_CtlSendData                         0x0800115b   Thumb Code   110  usbh_ioreq.o(i.USBH_CtlSendData)
    USBH_CtlSendSetup                        0x080011c9   Thumb Code    66  usbh_ioreq.o(i.USBH_CtlSendSetup)
    USBH_DeAllocate_AllChannel               0x0800120b   Thumb Code    28  usbh_hcs.o(i.USBH_DeAllocate_AllChannel)
    USBH_DeInit                              0x08001227   Thumb Code    58  usbh_core.o(i.USBH_DeInit)
    USBH_Disconnected                        0x08001261   Thumb Code    12  usbh_core.o(i.USBH_Disconnected)
    USBH_ErrorHandle                         0x0800126d   Thumb Code    46  usbh_core.o(i.USBH_ErrorHandle)
    USBH_Free_Channel                        0x0800129b   Thumb Code    30  usbh_hcs.o(i.USBH_Free_Channel)
    USBH_GetDescriptor                       0x080012b9   Thumb Code    68  usbh_stdreq.o(i.USBH_GetDescriptor)
    USBH_GetNextDesc                         0x08001325   Thumb Code    18  usbh_stdreq.o(i.USBH_GetNextDesc)
    USBH_Get_CfgDesc                         0x08001339   Thumb Code    88  usbh_stdreq.o(i.USBH_Get_CfgDesc)
    USBH_Get_DevDesc                         0x08001395   Thumb Code    56  usbh_stdreq.o(i.USBH_Get_DevDesc)
    USBH_Get_StringDesc                      0x080013cd   Thumb Code    60  usbh_stdreq.o(i.USBH_Get_StringDesc)
    USBH_HandleControl                       0x08001409   Thumb Code   544  usbh_core.o(i.USBH_HandleControl)
    USBH_Init                                0x08001809   Thumb Code    70  usbh_core.o(i.USBH_Init)
    USBH_Modify_Channel                      0x0800184f   Thumb Code   100  usbh_hcs.o(i.USBH_Modify_Channel)
    USBH_OTG_ISR_Handler                     0x080018b3   Thumb Code   168  usb_hcd_int.o(i.USBH_OTG_ISR_Handler)
    USBH_Open_Channel                        0x0800195b   Thumb Code   154  usbh_hcs.o(i.USBH_Open_Channel)
    USBH_Process                             0x08001be5   Thumb Code   418  usbh_core.o(i.USBH_Process)
    USBH_SOF                                 0x08001d87   Thumb Code     6  usbh_core.o(i.USBH_SOF)
    USBH_SetAddress                          0x08001d8d   Thumb Code    38  usbh_stdreq.o(i.USBH_SetAddress)
    USBH_SetCfg                              0x08001db3   Thumb Code    38  usbh_stdreq.o(i.USBH_SetCfg)
    USBH_USR_Configuration_DescAvailable     0x08001df1   Thumb Code    82  usbh_usr.o(i.USBH_USR_Configuration_DescAvailable)
    USBH_USR_DeInit                          0x08001e85   Thumb Code     2  usbh_usr.o(i.USBH_USR_DeInit)
    USBH_USR_DeviceAddressAssigned           0x08001e87   Thumb Code     2  usbh_usr.o(i.USBH_USR_DeviceAddressAssigned)
    USBH_USR_DeviceAttached                  0x08001e89   Thumb Code    12  usbh_usr.o(i.USBH_USR_DeviceAttached)
    USBH_USR_DeviceDisconnected              0x08001ead   Thumb Code    12  usbh_usr.o(i.USBH_USR_DeviceDisconnected)
    USBH_USR_DeviceNotSupported              0x08001ed1   Thumb Code    20  usbh_usr.o(i.USBH_USR_DeviceNotSupported)
    USBH_USR_DeviceSpeedDetected             0x08001f31   Thumb Code    80  usbh_usr.o(i.USBH_USR_DeviceSpeedDetected)
    USBH_USR_Device_DescAvailable            0x08001fc5   Thumb Code    40  usbh_usr.o(i.USBH_USR_Device_DescAvailable)
    USBH_USR_EnumerationDone                 0x0800205d   Thumb Code    22  usbh_usr.o(i.USBH_USR_EnumerationDone)
    USBH_USR_Init                            0x080020ad   Thumb Code    60  usbh_usr.o(i.USBH_USR_Init)
    USBH_USR_MSC_Application                 0x080021a1   Thumb Code     4  usbh_usr.o(i.USBH_USR_MSC_Application)
    USBH_USR_Manufacturer_String             0x080021a5   Thumb Code    24  usbh_usr.o(i.USBH_USR_Manufacturer_String)
    USBH_USR_OverCurrentDetected             0x08002205   Thumb Code    20  usbh_usr.o(i.USBH_USR_OverCurrentDetected)
    USBH_USR_Product_String                  0x08002265   Thumb Code    24  usbh_usr.o(i.USBH_USR_Product_String)
    USBH_USR_ResetDevice                     0x080022c1   Thumb Code    18  usbh_usr.o(i.USBH_USR_ResetDevice)
    USBH_USR_SerialNum_String                0x08002321   Thumb Code    24  usbh_usr.o(i.USBH_USR_SerialNum_String)
    USBH_USR_UnrecoveredError                0x08002381   Thumb Code    20  usbh_usr.o(i.USBH_USR_UnrecoveredError)
    USBH_USR_UserInput                       0x080023cd   Thumb Code     4  usbh_usr.o(i.USBH_USR_UserInput)
    USB_OTG_BSP_ConfigVBUS                   0x080023d1   Thumb Code     2  usb_bsp.o(i.USB_OTG_BSP_ConfigVBUS)
    USB_OTG_BSP_DriveVBUS                    0x080023d3   Thumb Code     2  usb_bsp.o(i.USB_OTG_BSP_DriveVBUS)
    USB_OTG_BSP_EnableInterrupt              0x080023d5   Thumb Code    44  usb_bsp.o(i.USB_OTG_BSP_EnableInterrupt)
    USB_OTG_BSP_Init                         0x08002401   Thumb Code    72  usb_bsp.o(i.USB_OTG_BSP_Init)
    USB_OTG_BSP_TimerIRQ                     0x08002485   Thumb Code    50  usb_bsp.o(i.USB_OTG_BSP_TimerIRQ)
    USB_OTG_BSP_mDelay                       0x080024bd   Thumb Code    14  usb_bsp.o(i.USB_OTG_BSP_mDelay)
    USB_OTG_BSP_uDelay                       0x080024cb   Thumb Code    14  usb_bsp.o(i.USB_OTG_BSP_uDelay)
    USB_OTG_CoreInit                         0x080024d9   Thumb Code   306  usb_core.o(i.USB_OTG_CoreInit)
    USB_OTG_CoreInitHost                     0x0800260b   Thumb Code   218  usb_core.o(i.USB_OTG_CoreInitHost)
    USB_OTG_DisableGlobalInt                 0x08002755   Thumb Code    34  usb_core.o(i.USB_OTG_DisableGlobalInt)
    USB_OTG_DriveVbus                        0x08002777   Thumb Code    92  usb_core.o(i.USB_OTG_DriveVbus)
    USB_OTG_EnableGlobalInt                  0x08002807   Thumb Code    34  usb_core.o(i.USB_OTG_EnableGlobalInt)
    USB_OTG_EnableHostInt                    0x08002829   Thumb Code   116  usb_core.o(i.USB_OTG_EnableHostInt)
    USB_OTG_FlushRxFifo                      0x0800289d   Thumb Code    70  usb_core.o(i.USB_OTG_FlushRxFifo)
    USB_OTG_FlushTxFifo                      0x080028e9   Thumb Code    80  usb_core.o(i.USB_OTG_FlushTxFifo)
    USB_OTG_GetMode                          0x0800293d   Thumb Code    12  usb_core.o(i.USB_OTG_GetMode)
    USB_OTG_HC_DoPing                        0x08002949   Thumb Code    90  usb_core.o(i.USB_OTG_HC_DoPing)
    USB_OTG_HC_Halt                          0x080029a3   Thumb Code   130  usb_core.o(i.USB_OTG_HC_Halt)
    USB_OTG_HC_Init                          0x08002a25   Thumb Code   568  usb_core.o(i.USB_OTG_HC_Init)
    USB_OTG_HC_StartXfer                     0x08002c5d   Thumb Code   502  usb_core.o(i.USB_OTG_HC_StartXfer)
    USB_OTG_InitFSLSPClkSel                  0x08002e53   Thumb Code    24  usb_core.o(i.USB_OTG_InitFSLSPClkSel)
    USB_OTG_IsEvenFrame                      0x08002e6b   Thumb Code    16  usb_core.o(i.USB_OTG_IsEvenFrame)
    USB_OTG_IsHostMode                       0x08002e7b   Thumb Code    20  usb_core.o(i.USB_OTG_IsHostMode)
    USB_OTG_ReadCoreItr                      0x08002e8f   Thumb Code    16  usb_core.o(i.USB_OTG_ReadCoreItr)
    USB_OTG_ReadHPRT0                        0x08002e9f   Thumb Code    48  usb_core.o(i.USB_OTG_ReadHPRT0)
    USB_OTG_ReadHostAllChannels_intr         0x08002ecf   Thumb Code     8  usb_core.o(i.USB_OTG_ReadHostAllChannels_intr)
    USB_OTG_ReadPacket                       0x08002ed7   Thumb Code    40  usb_core.o(i.USB_OTG_ReadPacket)
    USB_OTG_ResetPort                        0x08002eff   Thumb Code    64  usb_core.o(i.USB_OTG_ResetPort)
    USB_OTG_SelectCore                       0x08002f41   Thumb Code   212  usb_core.o(i.USB_OTG_SelectCore)
    USB_OTG_SetCurrentMode                   0x08003019   Thumb Code    78  usb_core.o(i.USB_OTG_SetCurrentMode)
    USB_OTG_WritePacket                      0x08003e39   Thumb Code    64  usb_core.o(i.USB_OTG_WritePacket)
    UsageFault_Handler                       0x08003e79   Thumb Code     4  stm32f4xx_it.o(i.UsageFault_Handler)
    __0printf$8                              0x08003e7d   Thumb Code    22  printf8.o(i.__0printf$8)
    __1printf$8                              0x08003e7d   Thumb Code     0  printf8.o(i.__0printf$8)
    __2printf                                0x08003e7d   Thumb Code     0  printf8.o(i.__0printf$8)
    __scatterload_copy                       0x08003e9d   Thumb Code    14  handlers.o(i.__scatterload_copy)
    __scatterload_null                       0x08003eab   Thumb Code     2  handlers.o(i.__scatterload_null)
    __scatterload_zeroinit                   0x08003ead   Thumb Code    14  handlers.o(i.__scatterload_zeroinit)
    fputc                                    0x08004371   Thumb Code    32  debug_usart.o(i.fputc)
    free                                     0x08004395   Thumb Code    76  malloc.o(i.free)
    main                                     0x08004401   Thumb Code    34  main.o(i.main)
    malloc                                   0x08004435   Thumb Code    92  malloc.o(i.malloc)
    send_cmd_remote                          0x080045f5   Thumb Code   118  usbh_adb_core.o(i.send_cmd_remote)
    MSG_HOST_INIT                            0x08004760   Data          29  usbh_usr.o(.constdata)
    MSG_DEV_ATTACHED                         0x0800477d   Data          21  usbh_usr.o(.constdata)
    MSG_DEV_DISCONNECTED                     0x08004792   Data          24  usbh_usr.o(.constdata)
    MSG_DEV_ENUMERATED                       0x080047aa   Data          27  usbh_usr.o(.constdata)
    MSG_DEV_HIGHSPEED                        0x080047c5   Data          31  usbh_usr.o(.constdata)
    MSG_DEV_FULLSPEED                        0x080047e4   Data          31  usbh_usr.o(.constdata)
    MSG_DEV_LOWSPEED                         0x08004803   Data          30  usbh_usr.o(.constdata)
    MSG_DEV_ERROR                            0x08004821   Data          18  usbh_usr.o(.constdata)
    MSG_MSC_CLASS                            0x08004833   Data          34  usbh_usr.o(.constdata)
    MSG_HID_CLASS                            0x08004855   Data          25  usbh_usr.o(.constdata)
    MSG_DISK_SIZE                            0x0800486e   Data          33  usbh_usr.o(.constdata)
    MSG_LUN                                  0x0800488f   Data          33  usbh_usr.o(.constdata)
    MSG_ROOT_CONT                            0x080048b0   Data          29  usbh_usr.o(.constdata)
    MSG_WR_PROTECT                           0x080048cd   Data          32  usbh_usr.o(.constdata)
    MSG_UNREC_ERROR                          0x080048ed   Data          28  usbh_usr.o(.constdata)
    MSG_ADB_CLASS                            0x08004909   Data          25  usbh_usr.o(.constdata)
    Region$$Table$$Base                      0x080049b0   Number         0  anon$$obj.o(Region$$Table)
    Region$$Table$$Limit                     0x080049d0   Number         0  anon$$obj.o(Region$$Table)
    USBH_HCD_INT_cb                          0x20000010   Data          12  usbh_core.o(.data)
    USBH_HCD_INT_fops                        0x2000001c   Data           4  usbh_core.o(.data)
    HSEStartUpStatus                         0x20000028   Data           1  usb_bsp.o(.data)
    BSP_delay                                0x2000002c   Data           4  usb_bsp.o(.data)
    USR_cb                                   0x20000030   Data          72  usbh_usr.o(.data)
    USBH_ADB_cb                              0x20000084   Data          16  usbh_adb_core.o(.data)
    __stdout                                 0x20000094   Data           4  stdout.o(.data)
    __microlib_freelist                      0x20000098   Data           4  mvars.o(.data)
    __microlib_freelist_initialised          0x2000009c   Data           4  mvars.o(.data)
    USBH_CfgDesc                             0x200000a0   Data         512  usbh_stdreq.o(.bss)
    USB_OTG_Core                             0x200002a0   Data        1452  usbh_usr.o(.bss)
    USB_Host                                 0x2000084c   Data         180  usbh_usr.o(.bss)
    ADB_Machine                              0x20000900   Data          12  usbh_adb_core.o(.bss)
    __heap_base                              0x20000910   Data           0  startup_stm32f429_439xx.o(HEAP)
    __heap_limit                             0x20000b10   Data           0  startup_stm32f429_439xx.o(HEAP)
    __initial_sp                             0x20000f10   Data           0  startup_stm32f429_439xx.o(STACK)



==============================================================================

Memory Map of the image

  Image Entry point : 0x080001ad

  Load Region LR_IROM1 (Base: 0x08000000, Size: 0x00004a70, Max: 0x00100000, ABSOLUTE)

    Execution Region ER_IROM1 (Exec base: 0x08000000, Load base: 0x08000000, Size: 0x000049d0, Max: 0x00100000, ABSOLUTE)

    Exec Addr    Load Addr    Size         Type   Attr      Idx    E Section Name        Object

    0x08000000   0x08000000   0x000001ac   Data   RO            3    RESET               startup_stm32f429_439xx.o
    0x080001ac   0x080001ac   0x00000000   Code   RO         6375  * .ARM.Collect$$$$00000000  mc_w.l(entry.o)
    0x080001ac   0x080001ac   0x00000004   Code   RO         6673    .ARM.Collect$$$$00000001  mc_w.l(entry2.o)
    0x080001b0   0x080001b0   0x00000004   Code   RO         6676    .ARM.Collect$$$$00000004  mc_w.l(entry5.o)
    0x080001b4   0x080001b4   0x00000000   Code   RO         6678    .ARM.Collect$$$$00000008  mc_w.l(entry7b.o)
    0x080001b4   0x080001b4   0x00000000   Code   RO         6680    .ARM.Collect$$$$0000000A  mc_w.l(entry8b.o)
    0x080001b4   0x080001b4   0x00000008   Code   RO         6681    .ARM.Collect$$$$0000000B  mc_w.l(entry9a.o)
    0x080001bc   0x080001bc   0x00000000   Code   RO         6683    .ARM.Collect$$$$0000000D  mc_w.l(entry10a.o)
    0x080001bc   0x080001bc   0x00000000   Code   RO         6685    .ARM.Collect$$$$0000000F  mc_w.l(entry11a.o)
    0x080001bc   0x080001bc   0x00000004   Code   RO         6674    .ARM.Collect$$$$00002712  mc_w.l(entry2.o)
    0x080001c0   0x080001c0   0x00000024   Code   RO            4    .text               startup_stm32f429_439xx.o
    0x080001e4   0x080001e4   0x00000024   Code   RO         6378    .text               mc_w.l(memseta.o)
    0x08000208   0x08000208   0x0000000e   Code   RO         6380    .text               mc_w.l(strlen.o)
    0x08000216   0x08000216   0x00000012   Code   RO         6382    .text               mc_w.l(strcpy.o)
    0x08000228   0x08000228   0x00000062   Code   RO         6690    .text               mc_w.l(uldiv.o)
    0x0800028a   0x0800028a   0x00000002   PAD
    0x0800028c   0x0800028c   0x00000024   Code   RO         6709    .text               mc_w.l(init.o)
    0x080002b0   0x080002b0   0x0000001e   Code   RO         6711    .text               mc_w.l(llshl.o)
    0x080002ce   0x080002ce   0x00000020   Code   RO         6713    .text               mc_w.l(llushr.o)
    0x080002ee   0x080002ee   0x00000002   PAD
    0x080002f0   0x080002f0   0x0000002c   Code   RO         6010    i.BSP_Delay         usb_bsp.o
    0x0800031c   0x0800031c   0x0000006a   Code   RO         6011    i.BSP_SetTime       usb_bsp.o
    0x08000386   0x08000386   0x00000004   Code   RO         5250    i.BusFault_Handler  stm32f4xx_it.o
    0x0800038a   0x0800038a   0x00000002   Code   RO         5251    i.DebugMon_Handler  stm32f4xx_it.o
    0x0800038c   0x0800038c   0x000000a0   Code   RO         6342    i.Debug_USART_Config  debug_usart.o
    0x0800042c   0x0800042c   0x00000090   Code   RO         2046    i.GPIO_Init         stm32f4xx_gpio.o
    0x080004bc   0x080004bc   0x00000046   Code   RO         2047    i.GPIO_PinAFConfig  stm32f4xx_gpio.o
    0x08000502   0x08000502   0x0000000a   Code   RO         5534    i.HCD_GetCurrentFrame  usb_hcd.o
    0x0800050c   0x0800050c   0x00000014   Code   RO         5535    i.HCD_GetCurrentSpeed  usb_hcd.o
    0x08000520   0x08000520   0x0000000a   Code   RO         5537    i.HCD_GetURB_State  usb_hcd.o
    0x0800052a   0x0800052a   0x00000060   Code   RO         5540    i.HCD_Init          usb_hcd.o
    0x0800058a   0x0800058a   0x00000008   Code   RO         5541    i.HCD_IsDeviceConnected  usb_hcd.o
    0x08000592   0x08000592   0x0000000e   Code   RO         5542    i.HCD_ResetPort     usb_hcd.o
    0x080005a0   0x080005a0   0x00000020   Code   RO         5543    i.HCD_SubmitRequest  usb_hcd.o
    0x080005c0   0x080005c0   0x0000001c   Code   RO         5252    i.HardFault_Handler  stm32f4xx_it.o
    0x080005dc   0x080005dc   0x00000004   Code   RO         5253    i.MemManage_Handler  stm32f4xx_it.o
    0x080005e0   0x080005e0   0x00000002   Code   RO         5254    i.NMI_Handler       stm32f4xx_it.o
    0x080005e2   0x080005e2   0x00000002   PAD
    0x080005e4   0x080005e4   0x00000078   Code   RO          164    i.NVIC_Init         misc.o
    0x0800065c   0x0800065c   0x00000014   Code   RO          165    i.NVIC_PriorityGroupConfig  misc.o
    0x08000670   0x08000670   0x00000014   Code   RO          166    i.NVIC_SetVectorTable  misc.o
    0x08000684   0x08000684   0x00000010   Code   RO         5255    i.OTG_HS_IRQHandler  stm32f4xx_it.o
    0x08000694   0x08000694   0x00000002   Code   RO         5256    i.PendSV_Handler    stm32f4xx_it.o
    0x08000696   0x08000696   0x00000002   PAD
    0x08000698   0x08000698   0x00000020   Code   RO         2960    i.RCC_AHB1PeriphClockCmd  stm32f4xx_rcc.o
    0x080006b8   0x080006b8   0x00000020   Code   RO         2969    i.RCC_APB1PeriphClockCmd  stm32f4xx_rcc.o
    0x080006d8   0x080006d8   0x00000020   Code   RO         2972    i.RCC_APB2PeriphClockCmd  stm32f4xx_rcc.o
    0x080006f8   0x080006f8   0x000000e8   Code   RO         2981    i.RCC_GetClocksFreq  stm32f4xx_rcc.o
    0x080007e0   0x080007e0   0x00000002   Code   RO         5257    i.SVC_Handler       stm32f4xx_it.o
    0x080007e2   0x080007e2   0x00000002   PAD
    0x080007e4   0x080007e4   0x00000120   Code   RO           13    i.SetSysClock       system_stm32f4xx.o
    0x08000904   0x08000904   0x00000002   Code   RO         5258    i.SysTick_Handler   stm32f4xx_it.o
    0x08000906   0x08000906   0x00000002   PAD
    0x08000908   0x08000908   0x00000068   Code   RO           15    i.SystemInit        system_stm32f4xx.o
    0x08000970   0x08000970   0x00000008   Code   RO         5259    i.TIM2_IRQHandler   stm32f4xx_it.o
    0x08000978   0x08000978   0x00000018   Code   RO         4341    i.TIM_ARRPreloadConfig  stm32f4xx_tim.o
    0x08000990   0x08000990   0x00000006   Code   RO         4348    i.TIM_ClearITPendingBit  stm32f4xx_tim.o
    0x08000996   0x08000996   0x00000018   Code   RO         4353    i.TIM_Cmd           stm32f4xx_tim.o
    0x080009ae   0x080009ae   0x00000022   Code   RO         4374    i.TIM_GetITStatus   stm32f4xx_tim.o
    0x080009d0   0x080009d0   0x00000012   Code   RO         4378    i.TIM_ITConfig      stm32f4xx_tim.o
    0x080009e2   0x080009e2   0x00000002   PAD
    0x080009e4   0x080009e4   0x00000084   Code   RO         4425    i.TIM_TimeBaseInit  stm32f4xx_tim.o
    0x08000a68   0x08000a68   0x00000012   Code   RO         4903    i.USART_ClearFlag   stm32f4xx_usart.o
    0x08000a7a   0x08000a7a   0x00000018   Code   RO         4907    i.USART_Cmd         stm32f4xx_usart.o
    0x08000a92   0x08000a92   0x0000001a   Code   RO         4910    i.USART_GetFlagStatus  stm32f4xx_usart.o
    0x08000aac   0x08000aac   0x000000d4   Code   RO         4914    i.USART_Init        stm32f4xx_usart.o
    0x08000b80   0x08000b80   0x00000008   Code   RO         4924    i.USART_SendData    stm32f4xx_usart.o
    0x08000b88   0x08000b88   0x0000006c   Code   RO         6230    i.USBH_ADB_ClassRequest  usbh_adb_core.o
    0x08000bf4   0x08000bf4   0x00000168   Code   RO         6231    i.USBH_ADB_Handle   usbh_adb_core.o
    0x08000d5c   0x08000d5c   0x000000a4   Code   RO         6232    i.USBH_ADB_InterfaceDeInit  usbh_adb_core.o
    0x08000e00   0x08000e00   0x00000188   Code   RO         6233    i.USBH_ADB_InterfaceInit  usbh_adb_core.o
    0x08000f88   0x08000f88   0x0000001c   Code   RO         6234    i.USBH_ADB_SEND_AUTH  usbh_adb_core.o
    0x08000fa4   0x08000fa4   0x0000001c   Code   RO         6235    i.USBH_ADB_SEND_CMD  usbh_adb_core.o
    0x08000fc0   0x08000fc0   0x00000026   Code   RO         5770    i.USBH_Alloc_Channel  usbh_hcs.o
    0x08000fe6   0x08000fe6   0x00000060   Code   RO         5823    i.USBH_BulkReceiveData  usbh_ioreq.o
    0x08001046   0x08001046   0x0000005e   Code   RO         5824    i.USBH_BulkSendData  usbh_ioreq.o
    0x080010a4   0x080010a4   0x0000000c   Code   RO         5686    i.USBH_Connected    usbh_core.o
    0x080010b0   0x080010b0   0x00000046   Code   RO         5825    i.USBH_CtlReceiveData  usbh_ioreq.o
    0x080010f6   0x080010f6   0x00000064   Code   RO         5826    i.USBH_CtlReq       usbh_ioreq.o
    0x0800115a   0x0800115a   0x0000006e   Code   RO         5827    i.USBH_CtlSendData  usbh_ioreq.o
    0x080011c8   0x080011c8   0x00000042   Code   RO         5828    i.USBH_CtlSendSetup  usbh_ioreq.o
    0x0800120a   0x0800120a   0x0000001c   Code   RO         5771    i.USBH_DeAllocate_AllChannel  usbh_hcs.o
    0x08001226   0x08001226   0x0000003a   Code   RO         5687    i.USBH_DeInit       usbh_core.o
    0x08001260   0x08001260   0x0000000c   Code   RO         5688    i.USBH_Disconnected  usbh_core.o
    0x0800126c   0x0800126c   0x0000002e   Code   RO         5689    i.USBH_ErrorHandle  usbh_core.o
    0x0800129a   0x0800129a   0x0000001e   Code   RO         5772    i.USBH_Free_Channel  usbh_hcs.o
    0x080012b8   0x080012b8   0x00000044   Code   RO         5907    i.USBH_GetDescriptor  usbh_stdreq.o
    0x080012fc   0x080012fc   0x00000028   Code   RO         5773    i.USBH_GetFreeChannel  usbh_hcs.o
    0x08001324   0x08001324   0x00000012   Code   RO         5908    i.USBH_GetNextDesc  usbh_stdreq.o
    0x08001336   0x08001336   0x00000002   PAD
    0x08001338   0x08001338   0x0000005c   Code   RO         5909    i.USBH_Get_CfgDesc  usbh_stdreq.o
    0x08001394   0x08001394   0x00000038   Code   RO         5910    i.USBH_Get_DevDesc  usbh_stdreq.o
    0x080013cc   0x080013cc   0x0000003c   Code   RO         5911    i.USBH_Get_StringDesc  usbh_stdreq.o
    0x08001408   0x08001408   0x00000224   Code   RO         5690    i.USBH_HandleControl  usbh_core.o
    0x0800162c   0x0800162c   0x000001dc   Code   RO         5691    i.USBH_HandleEnum   usbh_core.o
    0x08001808   0x08001808   0x00000046   Code   RO         5692    i.USBH_Init         usbh_core.o
    0x0800184e   0x0800184e   0x00000064   Code   RO         5774    i.USBH_Modify_Channel  usbh_hcs.o
    0x080018b2   0x080018b2   0x000000a8   Code   RO         5612    i.USBH_OTG_ISR_Handler  usb_hcd_int.o
    0x0800195a   0x0800195a   0x0000009a   Code   RO         5775    i.USBH_Open_Channel  usbh_hcs.o
    0x080019f4   0x080019f4   0x0000011c   Code   RO         5912    i.USBH_ParseCfgDesc  usbh_stdreq.o
    0x08001b10   0x08001b10   0x00000058   Code   RO         5913    i.USBH_ParseDevDesc  usbh_stdreq.o
    0x08001b68   0x08001b68   0x00000020   Code   RO         5914    i.USBH_ParseEPDesc  usbh_stdreq.o
    0x08001b88   0x08001b88   0x00000026   Code   RO         5915    i.USBH_ParseInterfaceDesc  usbh_stdreq.o
    0x08001bae   0x08001bae   0x00000036   Code   RO         5916    i.USBH_ParseStringDesc  usbh_stdreq.o
    0x08001be4   0x08001be4   0x000001a2   Code   RO         5693    i.USBH_Process      usbh_core.o
    0x08001d86   0x08001d86   0x00000006   Code   RO         5694    i.USBH_SOF          usbh_core.o
    0x08001d8c   0x08001d8c   0x00000026   Code   RO         5917    i.USBH_SetAddress   usbh_stdreq.o
    0x08001db2   0x08001db2   0x00000026   Code   RO         5918    i.USBH_SetCfg       usbh_stdreq.o
    0x08001dd8   0x08001dd8   0x00000018   Code   RO         5833    i.USBH_SubmitSetupRequest  usbh_ioreq.o
    0x08001df0   0x08001df0   0x00000094   Code   RO         6088    i.USBH_USR_Configuration_DescAvailable  usbh_usr.o
    0x08001e84   0x08001e84   0x00000002   Code   RO         6089    i.USBH_USR_DeInit   usbh_usr.o
    0x08001e86   0x08001e86   0x00000002   Code   RO         6090    i.USBH_USR_DeviceAddressAssigned  usbh_usr.o
    0x08001e88   0x08001e88   0x00000024   Code   RO         6091    i.USBH_USR_DeviceAttached  usbh_usr.o
    0x08001eac   0x08001eac   0x00000024   Code   RO         6092    i.USBH_USR_DeviceDisconnected  usbh_usr.o
    0x08001ed0   0x08001ed0   0x00000060   Code   RO         6093    i.USBH_USR_DeviceNotSupported  usbh_usr.o
    0x08001f30   0x08001f30   0x00000094   Code   RO         6094    i.USBH_USR_DeviceSpeedDetected  usbh_usr.o
    0x08001fc4   0x08001fc4   0x00000098   Code   RO         6095    i.USBH_USR_Device_DescAvailable  usbh_usr.o
    0x0800205c   0x0800205c   0x00000050   Code   RO         6096    i.USBH_USR_EnumerationDone  usbh_usr.o
    0x080020ac   0x080020ac   0x000000f4   Code   RO         6097    i.USBH_USR_Init     usbh_usr.o
    0x080021a0   0x080021a0   0x00000004   Code   RO         6098    i.USBH_USR_MSC_Application  usbh_usr.o
    0x080021a4   0x080021a4   0x00000060   Code   RO         6099    i.USBH_USR_Manufacturer_String  usbh_usr.o
    0x08002204   0x08002204   0x00000060   Code   RO         6100    i.USBH_USR_OverCurrentDetected  usbh_usr.o
    0x08002264   0x08002264   0x0000005c   Code   RO         6101    i.USBH_USR_Product_String  usbh_usr.o
    0x080022c0   0x080022c0   0x00000060   Code   RO         6102    i.USBH_USR_ResetDevice  usbh_usr.o
    0x08002320   0x08002320   0x00000060   Code   RO         6103    i.USBH_USR_SerialNum_String  usbh_usr.o
    0x08002380   0x08002380   0x0000004c   Code   RO         6104    i.USBH_USR_UnrecoveredError  usbh_usr.o
    0x080023cc   0x080023cc   0x00000004   Code   RO         6105    i.USBH_USR_UserInput  usbh_usr.o
    0x080023d0   0x080023d0   0x00000002   Code   RO         6012    i.USB_OTG_BSP_ConfigVBUS  usb_bsp.o
    0x080023d2   0x080023d2   0x00000002   Code   RO         6013    i.USB_OTG_BSP_DriveVBUS  usb_bsp.o
    0x080023d4   0x080023d4   0x0000002c   Code   RO         6014    i.USB_OTG_BSP_EnableInterrupt  usb_bsp.o
    0x08002400   0x08002400   0x0000004c   Code   RO         6015    i.USB_OTG_BSP_Init  usb_bsp.o
    0x0800244c   0x0800244c   0x00000038   Code   RO         6016    i.USB_OTG_BSP_TimeInit  usb_bsp.o
    0x08002484   0x08002484   0x00000038   Code   RO         6017    i.USB_OTG_BSP_TimerIRQ  usb_bsp.o
    0x080024bc   0x080024bc   0x0000000e   Code   RO         6018    i.USB_OTG_BSP_mDelay  usb_bsp.o
    0x080024ca   0x080024ca   0x0000000e   Code   RO         6019    i.USB_OTG_BSP_uDelay  usb_bsp.o
    0x080024d8   0x080024d8   0x00000132   Code   RO         5341    i.USB_OTG_CoreInit  usb_core.o
    0x0800260a   0x0800260a   0x000000da   Code   RO         5342    i.USB_OTG_CoreInitHost  usb_core.o
    0x080026e4   0x080026e4   0x00000070   Code   RO         5343    i.USB_OTG_CoreReset  usb_core.o
    0x08002754   0x08002754   0x00000022   Code   RO         5344    i.USB_OTG_DisableGlobalInt  usb_core.o
    0x08002776   0x08002776   0x0000005c   Code   RO         5345    i.USB_OTG_DriveVbus  usb_core.o
    0x080027d2   0x080027d2   0x00000034   Code   RO         5346    i.USB_OTG_EnableCommonInt  usb_core.o
    0x08002806   0x08002806   0x00000022   Code   RO         5347    i.USB_OTG_EnableGlobalInt  usb_core.o
    0x08002828   0x08002828   0x00000074   Code   RO         5348    i.USB_OTG_EnableHostInt  usb_core.o
    0x0800289c   0x0800289c   0x0000004c   Code   RO         5349    i.USB_OTG_FlushRxFifo  usb_core.o
    0x080028e8   0x080028e8   0x00000054   Code   RO         5350    i.USB_OTG_FlushTxFifo  usb_core.o
    0x0800293c   0x0800293c   0x0000000c   Code   RO         5351    i.USB_OTG_GetMode   usb_core.o
    0x08002948   0x08002948   0x0000005a   Code   RO         5352    i.USB_OTG_HC_DoPing  usb_core.o
    0x080029a2   0x080029a2   0x00000082   Code   RO         5353    i.USB_OTG_HC_Halt   usb_core.o
    0x08002a24   0x08002a24   0x00000238   Code   RO         5354    i.USB_OTG_HC_Init   usb_core.o
    0x08002c5c   0x08002c5c   0x000001f6   Code   RO         5355    i.USB_OTG_HC_StartXfer  usb_core.o
    0x08002e52   0x08002e52   0x00000018   Code   RO         5356    i.USB_OTG_InitFSLSPClkSel  usb_core.o
    0x08002e6a   0x08002e6a   0x00000010   Code   RO         5358    i.USB_OTG_IsEvenFrame  usb_core.o
    0x08002e7a   0x08002e7a   0x00000014   Code   RO         5359    i.USB_OTG_IsHostMode  usb_core.o
    0x08002e8e   0x08002e8e   0x00000010   Code   RO         5360    i.USB_OTG_ReadCoreItr  usb_core.o
    0x08002e9e   0x08002e9e   0x00000030   Code   RO         5361    i.USB_OTG_ReadHPRT0  usb_core.o
    0x08002ece   0x08002ece   0x00000008   Code   RO         5362    i.USB_OTG_ReadHostAllChannels_intr  usb_core.o
    0x08002ed6   0x08002ed6   0x00000028   Code   RO         5364    i.USB_OTG_ReadPacket  usb_core.o
    0x08002efe   0x08002efe   0x00000040   Code   RO         5365    i.USB_OTG_ResetPort  usb_core.o
    0x08002f3e   0x08002f3e   0x00000002   PAD
    0x08002f40   0x08002f40   0x000000d8   Code   RO         5366    i.USB_OTG_SelectCore  usb_core.o
    0x08003018   0x08003018   0x0000004e   Code   RO         5367    i.USB_OTG_SetCurrentMode  usb_core.o
    0x08003066   0x08003066   0x00000002   PAD
    0x08003068   0x08003068   0x0000002c   Code   RO         5613    i.USB_OTG_USBH_handle_Disconnect_ISR  usb_hcd_int.o
    0x08003094   0x08003094   0x00000046   Code   RO         5614    i.USB_OTG_USBH_handle_IncompletePeriodicXfer_ISR  usb_hcd_int.o
    0x080030da   0x080030da   0x00000056   Code   RO         5615    i.USB_OTG_USBH_handle_hc_ISR  usb_hcd_int.o
    0x08003130   0x08003130   0x0000042a   Code   RO         5616    i.USB_OTG_USBH_handle_hc_n_In_ISR  usb_hcd_int.o
    0x0800355a   0x0800355a   0x000003d0   Code   RO         5617    i.USB_OTG_USBH_handle_hc_n_Out_ISR  usb_hcd_int.o
    0x0800392a   0x0800392a   0x0000012e   Code   RO         5618    i.USB_OTG_USBH_handle_nptxfempty_ISR  usb_hcd_int.o
    0x08003a58   0x08003a58   0x00000120   Code   RO         5619    i.USB_OTG_USBH_handle_port_ISR  usb_hcd_int.o
    0x08003b78   0x08003b78   0x0000012e   Code   RO         5620    i.USB_OTG_USBH_handle_ptxfempty_ISR  usb_hcd_int.o
    0x08003ca6   0x08003ca6   0x00000164   Code   RO         5621    i.USB_OTG_USBH_handle_rx_qlvl_ISR  usb_hcd_int.o
    0x08003e0a   0x08003e0a   0x00000002   PAD
    0x08003e0c   0x08003e0c   0x0000002c   Code   RO         5622    i.USB_OTG_USBH_handle_sof_ISR  usb_hcd_int.o
    0x08003e38   0x08003e38   0x00000040   Code   RO         5369    i.USB_OTG_WritePacket  usb_core.o
    0x08003e78   0x08003e78   0x00000004   Code   RO         5260    i.UsageFault_Handler  stm32f4xx_it.o
    0x08003e7c   0x08003e7c   0x00000020   Code   RO         6591    i.__0printf$8       mc_w.l(printf8.o)
    0x08003e9c   0x08003e9c   0x0000000e   Code   RO         6721    i.__scatterload_copy  mc_w.l(handlers.o)
    0x08003eaa   0x08003eaa   0x00000002   Code   RO         6722    i.__scatterload_null  mc_w.l(handlers.o)
    0x08003eac   0x08003eac   0x0000000e   Code   RO         6723    i.__scatterload_zeroinit  mc_w.l(handlers.o)
    0x08003eba   0x08003eba   0x00000002   PAD
    0x08003ebc   0x08003ebc   0x00000410   Code   RO         6598    i._printf_core      mc_w.l(printf8.o)
    0x080042cc   0x080042cc   0x00000024   Code   RO         6599    i._printf_post_padding  mc_w.l(printf8.o)
    0x080042f0   0x080042f0   0x0000002e   Code   RO         6600    i._printf_pre_padding  mc_w.l(printf8.o)
    0x0800431e   0x0800431e   0x00000030   Code   RO         6236    i.check_data        usbh_adb_core.o
    0x0800434e   0x0800434e   0x00000022   Code   RO         6237    i.check_header      usbh_adb_core.o
    0x08004370   0x08004370   0x00000024   Code   RO         6344    i.fputc             debug_usart.o
    0x08004394   0x08004394   0x00000050   Code   RO         6645    i.free              mc_w.l(malloc.o)
    0x080043e4   0x080043e4   0x0000001a   Code   RO         6238    i.get_apacket       usbh_adb_core.o
    0x080043fe   0x080043fe   0x00000002   PAD
    0x08004400   0x08004400   0x00000034   Code   RO         5161    i.main              main.o
    0x08004434   0x08004434   0x0000006c   Code   RO         6646    i.malloc            mc_w.l(malloc.o)
    0x080044a0   0x080044a0   0x0000000c   Code   RO         6239    i.put_apacket       usbh_adb_core.o
    0x080044ac   0x080044ac   0x0000005c   Code   RO         6240    i.remote_read       usbh_adb_core.o
    0x08004508   0x08004508   0x00000048   Code   RO         6241    i.remote_write      usbh_adb_core.o
    0x08004550   0x08004550   0x000000a4   Code   RO         6242    i.send_auth_remote  usbh_adb_core.o
    0x080045f4   0x080045f4   0x00000098   Code   RO         6243    i.send_cmd_remote   usbh_adb_core.o
    0x0800468c   0x0800468c   0x00000042   Code   RO         6244    i.send_packet_remote  usbh_adb_core.o
    0x080046ce   0x080046ce   0x00000002   PAD
    0x080046d0   0x080046d0   0x0000004c   Code   RO         6245    i.usb_read          usbh_adb_core.o
    0x0800471c   0x0800471c   0x00000044   Code   RO         6246    i.usb_write         usbh_adb_core.o
    0x08004760   0x08004760   0x000001c2   Data   RO         6107    .constdata          usbh_usr.o
    0x08004922   0x08004922   0x00000002   PAD
    0x08004924   0x08004924   0x0000008a   Data   RO         6248    .conststring        usbh_adb_core.o
    0x080049ae   0x080049ae   0x00000002   PAD
    0x080049b0   0x080049b0   0x00000020   Data   RO         6719    Region$$Table       anon$$obj.o


    Execution Region RW_IRAM1 (Exec base: 0x20000000, Load base: 0x080049d0, Size: 0x00000f10, Max: 0x00030000, ABSOLUTE)

    Exec Addr    Load Addr    Size         Type   Attr      Idx    E Section Name        Object

    0x20000000   0x080049d0   0x00000010   Data   RW         3013    .data               stm32f4xx_rcc.o
    0x20000010   0x080049e0   0x00000012   Data   RW         5695    .data               usbh_core.o
    0x20000022   0x080049f2   0x00000003   Data   RW         5921    .data               usbh_stdreq.o
    0x20000025   0x080049f5   0x00000003   PAD
    0x20000028   0x080049f8   0x00000008   Data   RW         6020    .data               usb_bsp.o
    0x20000030   0x08004a00   0x00000049   Data   RW         6108    .data               usbh_usr.o
    0x20000079   0x08004a49   0x00000003   PAD
    0x2000007c   0x08004a4c   0x00000018   Data   RW         6249    .data               usbh_adb_core.o
    0x20000094   0x08004a64   0x00000004   Data   RW         6687    .data               mc_w.l(stdout.o)
    0x20000098   0x08004a68   0x00000004   Data   RW         6696    .data               mc_w.l(mvars.o)
    0x2000009c   0x08004a6c   0x00000004   Data   RW         6697    .data               mc_w.l(mvars.o)
    0x200000a0        -       0x00000200   Zero   RW         5920    .bss                usbh_stdreq.o
    0x200002a0        -       0x00000660   Zero   RW         6106    .bss                usbh_usr.o
    0x20000900        -       0x0000000c   Zero   RW         6247    .bss                usbh_adb_core.o
    0x2000090c   0x08004a70   0x00000004   PAD
    0x20000910        -       0x00000200   Zero   RW            2    HEAP                startup_stm32f429_439xx.o
    0x20000b10        -       0x00000400   Zero   RW            1    STACK               startup_stm32f429_439xx.o


==============================================================================

Image component sizes


      Code (inc. data)   RO Data    RW Data    ZI Data      Debug   Object Name

       196         12          0          0          0       1249   debug_usart.o
        52         18          0          0          0      28699   main.o
       160         32          0          0          0       2233   misc.o
        36          8        428          0       1536        944   startup_stm32f429_439xx.o
       214          0          0          0          0       1887   stm32f4xx_gpio.o
        74         24          0          0          0       4848   stm32f4xx_it.o
       328         36          0         16          0       4787   stm32f4xx_rcc.o
       238         28          0          0          0       4473   stm32f4xx_tim.o
       288          8          0          0          0       4034   stm32f4xx_usart.o
       392         32          0          0          0     295805   system_stm32f4xx.o
       414         16          0          8          0       5820   usb_bsp.o
      3020         18          0          0          0      19047   usb_core.o
       190          0          0          0          0       4674   usb_hcd.o
      3702         16          0          0          0      10543   usb_hcd_int.o
      1890        562        138         24         12      12728   usbh_adb_core.o
      1646         42          0         18          0       9169   usbh_core.o
       390          0          0          0          0       4684   usbh_hcs.o
       560          0          0          0          0       5718   usbh_ioreq.o
       866         14          0          3        512       9799   usbh_stdreq.o
      1504       1034        450         73       1632      10835   usbh_usr.o

    ----------------------------------------------------------------------
     16182       1900       1052        148       3696     441976   Object Totals
         0          0         32          0          0          0   (incl. Generated)
        22          0          4          6          4          0   (incl. Padding)

    ----------------------------------------------------------------------

      Code (inc. data)   RO Data    RW Data    ZI Data      Debug   Library Member Name

         0          0          0          0          0          0   entry.o
         0          0          0          0          0          0   entry10a.o
         0          0          0          0          0          0   entry11a.o
         8          4          0          0          0          0   entry2.o
         4          0          0          0          0          0   entry5.o
         0          0          0          0          0          0   entry7b.o
         0          0          0          0          0          0   entry8b.o
         8          4          0          0          0          0   entry9a.o
        30          0          0          0          0          0   handlers.o
        36          8          0          0          0         68   init.o
        30          0          0          0          0         68   llshl.o
        32          0          0          0          0         68   llushr.o
       188         20          0          0          0        160   malloc.o
        36          0          0          0          0        108   memseta.o
         0          0          0          8          0          0   mvars.o
      1154         54          0          0          0        352   printf8.o
         0          0          0          4          0          0   stdout.o
        18          0          0          0          0         68   strcpy.o
        14          0          0          0          0         68   strlen.o
        98          0          0          0          0         92   uldiv.o

    ----------------------------------------------------------------------
      1662         90          0         12          0       1052   Library Totals
         6          0          0          0          0          0   (incl. Padding)

    ----------------------------------------------------------------------

      Code (inc. data)   RO Data    RW Data    ZI Data      Debug   Library Name

      1656         90          0         12          0       1052   mc_w.l

    ----------------------------------------------------------------------
      1662         90          0         12          0       1052   Library Totals

    ----------------------------------------------------------------------

==============================================================================


      Code (inc. data)   RO Data    RW Data    ZI Data      Debug   

     17844       1990       1052        160       3696     427564   Grand Totals
     17844       1990       1052        160       3696     427564   ELF Image Totals
     17844       1990       1052        160          0          0   ROM Totals

==============================================================================

    Total RO  Size (Code + RO Data)                18896 (  18.45kB)
    Total RW  Size (RW Data + ZI Data)              3856 (   3.77kB)
    Total ROM Size (Code + RO Data + RW Data)      19056 (  18.61kB)

==============================================================================

